:03000000020E8667
:0C0E8600787FE4F6D8FD75814402080076
:100B54001008080808040410080404080404040421
:100B640004041010080804040C08101008040404F9
:100B7400041006050305070605060305060503021A
:100B8400010605030202030505060302010503022B
:100B9400010601010F0707070708090102030602FE
:100BA400040404040C0802020404040802020404F9
:100BB40004020204040C01020808050103030305EE
:100BC40004030504030202010001020304030203F7
:100BD400040505040302010F0404040602040404CA
:100BE400040602040404040C0802020404040802B7
:100BF40002040404020204040C01010103020103BF
:100C040003030504030504030202010001020304B3
:100C1400030203040505040302010F73665B564DCA
:100C2400443D3903F403BC035402F702CC027E02B0
:0D0C34003801FA01DE01AA017B0213000A5B
:010EA500222A
:100E4500AD071FED600B7E78EED3940040F21E8057
:010E5500F7A5
:010E56002279
:0A0E9200D291120EA5D290020EA517
:0F0E6800D290120EA5D291120EA5C291020EA524
:0F0E7700C291120EA5D290120EA5D291020EA515
:080DEE00120E687FA0120DA98E
:100DF600D290120EA530910BE53FC394FA5004052C
:080E06003F80F2C290020EA52C
:100DA900E4FEEF25E0FFC290120EA59291120EA566
:100DB900D290120EA50EBE08E9C290120EA5D291CC
:030DC900020EA572
:100D8400C290120EA5D291120EA5E4FED290120EBC
:100D9400A5EF25E0FDA291E4334DFFC290120EA50C
:040DA4000EBE08E88F
:010DA8002228
:100E2D00AC07120DEEAF04120DA9120DF6AF05129F
:080E3D000DA9120DF6020E775B
:020E0E00AD072E
:100E1000120DEEAF05120DA9120DF6120E687FA18C
:0C0E2000120DA9120DF6120D84120E77AF
:010E2C0022A3
:10080000E4F53DF539D2A7D2AF758901D2A975803B
:100810003C7590FFE590F4F50924F8601924F86020
:100820002224F0602B241C7032E4FF120DCC753AA8
:1008300001E4F53980257F01120DCC753A01753937
:100840000180187F02120DCC753A01753902800BB8
:100850007F03120DCC753A0175390320961020964E
:10086000077F04120DCC80F6753A01753904209784
:10087000102097077F05120DCC80F6753A01753967
:100880000520B01020B0077F06120DCC80F6753A17
:100890000175390620B11020B1077F07120DCC80F9
:1008A000F6753A01753907E53AB4010DE4F53AAF4A
:1008B0003D053D740E2FF8A63920B43E7F0A120E76
:1008C0004520B436E4F58030B4FDAF3D053D740EEF
:1008D0002FF8761E120E92E4F53EE53EC3942850A2
:1008E00016AF3E053E740E2FF8E6FDAF3E120E2DFC
:1008F0007F0A120E4580E375800120B5677F0A12DA
:100900000E4520B55F30B5FD120E92E4F580753CC2
:1009100001AF3C120E0EEF641E6046AF3C053C1268
:100920000E0E8F3BEF25E02427F582E4340CF5838F
:10093000E493FE740193FBE4C39BFFE49EFE740109
:100940009400FDE49400FCE4FB7A01F9F8120D40F8
:100950008F0AE53B120CF0C28C7F04120D290209AC
:100960001175800120B35B30B3FDAF3D053D740EC2
:100970002FF8761E740E253EF8E6FF641E6043EFE6
:1009800025E02427F582E4340CF583E493FE74011A
:1009900093FBE4C39BFFE49EFE74019400FDE4948A
:1009A00000FCE4FB7A01F9F8120D408F0A740E2561
:1009B0003EF8E6120CF0C28C053E7F04120D2902AF
:1009C000097430B20302080E7F0A120E4530B203DA
:1009D00002080E30B2FDE4F58030B27420B0237FFF
:1009E0000A120E4520B01B7580AA30B0FD7542FF7B
:1009F00075430B7544547BFF7A0B7976120C417565
:100A000080FF20B1237F0A120E4520B11B7580AAFA
:100A100030B1FD7542FF75430B7544997BFF7A0B2E
:100A200079BA120C417580FF2097AE7F0A120E45ED
:100A30002097A67580AA3097FD7542FF75430B7508
:100A400044DC7BFF7A0B79FD120C417580FF8089B5
:090A500030B2FD75800102080EB0
:100C41008B3F8A408941E4F50DAB3FAA40A941851C
:100C51000D82758300120A59FF640F7003020CEFB5
:100C6100EF25E02427F582E4340CF583E493FE7448
:100C71000193FBE4C39BFFE49EFE74019400FDE439
:100C81009400FCE4FB7A01F9F8120D408F0AAB3FA6
:100C9100AA40A941850D82758300120A5925E024D5
:100CA10027F582E4340CF583E493FE740193FBE4AD
:100CB100C39BFFE49EFE74019400FDE49400FCE4F8
:100CC100FB7A01F9F8120D40AF038F0C850A8C8570
:100CD1000C8AD28CAB42AA43A944850D827583004C
:0F0CE100120A59FF120D29050DC28C020C4A226E
:03000B00020E9C46
:090E9C00850A8C850C8AB2A7328C
:100CF00025E02427F582E4340CF583E493FE7401A7
:100D000093FBE4C39BFFE49EFE74019400FDE49416
:100D100000FCE4FB7A01F9F8120D40AF038F0C855B
:090D20000A8C850C8AD28C7F0339
:100D2900E4FEEEC39F500FE4FDE4FC0CBC78FC0D1F
:060D3900BD7DF60E80EC0A
:010D3F002291
:100E5700E4FEEEC39F5009E4FD0DBD01FC0E80F2D8
:010E67002268
:020DCC00AC0772
:100DCE00859080E4FBC2A7EC900C1F93FF120E5788
:0F0DDE00D2A7EC93FF120E570BBBFFE97580FFF6
:010DED0022E3
:100A5900BB010CE58229F582E5833AF583E0225052
:100A690006E92582F8E622BBFE06E92582F8E2229C
:0D0A7900E58229F582E5833AF583E49322B6
:100D4000C2D5E830E70FB2D5E4C39BFBE49AFAE4DE
:100D500099F9E498F8EC30E717B2D5120D76120A3B
:100D6000C2E4C39BFBE49AFAE499F9E498F880039F
:100D7000120AC230D50DE4C39FFFE49EFEE49DFD40
:040D8000E49CFC22D1
:100A860075F008758200EF2FFFEE33FECD33CDCC27
:100A960033CCC58233C5829BED9AEC99E5829840AA
:100AA6000CF582EE9BFEED9AFDEC99FC0FD5F0D687
:100AB600E4CEFBE4CDFAE4CCF9A88222B800C1B9B1
:100AC6000059BA002DEC8BF084CFCECDFCE5F0CBEF
:100AD600F97818EF2FFFEE33FEED33FDEC33FCEB28
:100AE60033FB10D703994004EB99FB0FD8E5E4F9E3
:100AF600FA227818EF2FFFEE33FEED33FDEC33FCD0
:100B0600C933C910D7059BE99A4007EC9BFCE99AC3
:100B1600F90FD8E0E4C9FAE4CCFB2275F010EF2F08
:100B2600FFEE33FEED33FDCC33CCC833C810D70708
:100B36009BEC9AE899400AED9BFDEC9AFCE899F843
:0E0B46000FD5F0DAE4CDFBE4CCFAE4C8F922D6
:00000001FF
