:100CB200120D67AF17EF120D1B0CE9A10CF5A50C75
:100CC200FDAD0D01B50CF9BD0CF1E30CE5E70CDD52
:100CD200E90CE1F30CEDF700000D08E4FF80227F40
:100CE20001801E7F02801A7F0380167F0480127F9C
:100CF20005800E7F06800A7F0780067F0880027FBC
:0D0D020009120C4580AD7F0A120C4580A639
:1008000000010002000400080010002000400080E9
:1008100001000200040008001000200040008000D9
:100820000000000000000000000000000018001898
:1008300000240024004200420042004200420042E4
:100840000042004200420042004200420042004298
:100850000024002400180018000000000000000020
:100860000000000000000000000000000018000868
:100870000024000E00420008004200080042000868
:100880000042000800420008004200080042000840
:10089000002400080018003E0000000000000000D6
:1008A0000000000000000000000000000018003CF4
:1008B0000024004200420042004200420042002068
:1008C00000420020004200100042000800420004E4
:1008D000002400420018007E00000000000000001C
:1008E0000000000000000000000000000018003CB4
:1008F0000024004200420042004200200042001852
:1009000000420020004200400042004000420042FD
:10091000002400220018001C00000000000000005D
:10092000000000000000000000000000001800208F
:10093000002400300042002800420024004200242D
:1009400000420022004200220042007E00420020BD
:1009500000240020001800780000000000000000C3
:100960000000000000000000000000000018007EF1
:100970000024000200420002004200020042001A6D
:100980000042002600420040004200400042004277
:10099000002400220018001C0000000000000000DD
:1009A00000000000000000000000000000180038F7
:1009B0000024002400420002004200020042001A0B
:1009C0000042002600420042004200420042004233
:1009D000002400240018001800000000000000009F
:1009E0000000000000000000000000000018007E71
:1009F00000240022004200220042001000420010A9
:100A000000420008004200080042000800420008BE
:100A1000002400080018000800000000000000008A
:100A20000000000000000000000000000018003C72
:100A300000240042004200420042004200420024E2
:100A400000420018004200240042004200420042DE
:100A5000002400420018003C0000000000000000DC
:100A60000000000000000000000000000018001856
:100A700000240024004200420042004200420042A2
:100A80000042006400420058004200400042004022
:100A9000002400240018001C0000000000000000DA
:100AA0000000000000000000003C00F00066009C18
:100AB0000043008200000000000000000000000071
:100AC0000000000000000000003000180060000876
:100AD00000C000070000000000000000000000004F
:020C45008F1C02
:100C4700E4F51D75F040E51CA42422F582E5F03497
:100C570008F58375F004E51D120D0F740193F4FF79
:100C670075F040E51CA42420F582E5F03408F583EF
:100C770075F004E51D120D0F740193F4FDE51D25B4
:100C8700E02400F582E43408F583E493FBE51D25B1
:100C9700E02401F582E43408F583E493F521120B8F
:0A0CA700D7051DE51DC39410409908
:010CB1002220
:100BD700E4FEEFC4131313540124FF92B4EF25E08E
:100BE700FFC2B6D2B60EBE08E9E4FEEDC413131376
:100BF700540124FF92B4ED25E0FDC2B6D2B60EBE75
:100C070008E9E4FEEBC4131313540124FF92B4EB79
:100C170025E0FBC2B6D2B60EBE08E9E4FEE521C464
:100C2700131313540124FF92B4E52125E0F521C2E3
:0D0C3700B6D2B60EBE08E6C2B5D2B5C2B543
:010C4400228D
:040D41007F017E00B0
:100D4500EF1FAA0670011E4A600BE4FDEDC3940D6A
:050D550050EE0D80F7D7
:010D5A002276
:090D6700D288D2A8D2AFD2B22288
:03000300020AE00E
:100AE000C0E0C083C082C0D075D000C000C002C0CA
:070AF00004C005C006C007A9
:100AF7007514007F467E00120D4530B203020BC20B
:100B07009003E820B218D3E5829400E5839400406F
:100B17000D120D41E582158270E9158380E520B23B
:100B270003020BC29001F430B218D3E5829400E5BA
:100B3700839400400D120D41E582158270E91583FB
:100B470080E5E4FC751B0090003C20B218D3E582D9
:100B57009400E5839400400D120D41E582158270E3
:100B6700E9158380E59001F430B223D3E582940040
:100B7700E58394004018120D410514E58215827033
:100B8700021583E514D3941E40DED2A8802D741578
:100B97002CF8C000E6C313D000F6E514C394084050
:100BA7000874152CF8E64480F6751400051BE51B40
:0B0BB700C3940840920CEC64047089A9
:100BC200D007D006D005D004D002D000D0D0D08239
:050BD200D083D0E032E9
:03000000020D5B93
:0C0D5B00787FE4F6D8FD758121020CB20F
:0C0D0F00A42582F582E5F03583F58322EF
:100D1B00D083D082F8E4937012740193700DA3A367
:100D2B0093F8740193F5828883E47374029368607B
:060D3B00EFA3A3A380DF7B
:00000001FF
