:1008000000010002000400080010002000400080E9
:1008100001000200040008001000200040008000D9
:100820000000000000000000000000000018001898
:1008300000240024004200420042004200420042E4
:100840000042004200420042004200420042004298
:100850000024002400180018000000000000000020
:100860000000000000000000000000000018000868
:100870000024000E00420008004200080042000868
:100880000042000800420008004200080042000840
:10089000002400080018003E0000000000000000D6
:1008A0000000000000000000000000000018003CF4
:1008B0000024004200420042004200420042002068
:1008C00000420020004200100042000800420004E4
:1008D000002400420018007E00000000000000001C
:1008E0000000000000000000000000000018003CB4
:1008F0000024004200420042004200200042001852
:1009000000420020004200400042004000420042FD
:10091000002400220018001C00000000000000005D
:10092000000000000000000000000000001800208F
:10093000002400300042002800420024004200242D
:1009400000420022004200220042007E00420020BD
:1009500000240020001800780000000000000000C3
:100960000000000000000000000000000018007EF1
:100970000024000200420002004200020042001A6D
:100980000042002600420040004200400042004277
:10099000002400220018001C0000000000000000DD
:1009A00000000000000000000000000000180038F7
:1009B0000024002400420002004200020042001A0B
:1009C0000042002600420042004200420042004233
:1009D000002400240018001800000000000000009F
:1009E0000000000000000000000000000018007E71
:1009F00000240022004200220042001000420010A9
:100A000000420008004200080042000800420008BE
:100A1000002400080018000800000000000000008A
:100A20000000000000000000000000000018003C72
:100A300000240042004200420042004200420024E2
:100A400000420018004200240042004200420042DE
:100A5000002400420018003C0000000000000000DC
:100A60000000000000000000000000000018001856
:100A700000240024004200420042004200420042A2
:100A80000042006400420058004200400042004022
:100A9000002400240018001C0000000000000000DA
:100AA0000000000000000000003C00F00066009C18
:100AB0000043008200000000000000000000000071
:100AC0000000000000000000003000180060000876
:100AD00000C000070000000000000000000000004F
:020C45008F1C02
:100C4700E4F51D75F040E51CA42422F582E5F03497
:100C570008F58375F004E51D120D10740193F4FF78
:100C670075F040E51CA42420F582E5F03408F583EF
:100C770075F004E51D120D10740193F4FDE51D25B3
:100C8700E02400F582E43408F583E493FBE51D25B1
:100C9700E02401F582E43408F583E493F521120B8F
:0A0CA700D7051DE51DC39410409908
:010CB1002220
:100BD700E4FEEFC4131313540124FF92B4EF25E08E
:100BE700FFC2B6D2B60EBE08E9E4FEEDC413131376
:100BF700540124FF92B4ED25E0FDC2B6D2B60EBE75
:100C070008E9E4FEEBC4131313540124FF92B4EB79
:100C170025E0FBC2B6D2B60EBE08E9E4FEE521C464
:100C2700131313540124FF92B4E52125E0F521C2E3
:0D0C3700B6D2B60EBE08E6C2B5D2B5C2B543
:010C4400228D
:040D73007F017E007E
:100D7700EF1FAA0670011E4A600BE4FDEDC3940D38
:050D870050EE0D80F7A5
:010D8C002244
:090D9900D288D2A8D2AFD2B22256
:03000300020AE00E
:100AE000C0E0C083C082C0D075D000C000C002C0CA
:070AF00004C005C006C007A9
:100AF7007514007F467E00120D7730B203020BC2D9
:100B07009003E820B218D3E5829400E5839400406F
:100B17000D120D73E582158270E9158380E520B209
:100B270003020BC29001F430B218D3E5829400E5BA
:100B3700839400400D120D73E582158270E91583C9
:100B470080E5E4FC751B0090003C20B218D3E582D9
:100B57009400E5839400400D120D73E582158270B1
:100B6700E9158380E59001F430B223D3E582940040
:100B7700E58394004018120D730514E58215827001
:100B8700021583E514D3941E40DED2A8802D741578
:100B97002CF8C000E6C313D000F6E514C394084050
:100BA7000874152CF8E64480F6751400051BE51B40
:0B0BB700C3940840920CEC64047089A9
:100BC200D007D006D005D004D002D000D0D0D08239
:050BD200D083D0E032E9
:100D4200120D99AF17EF245F601624BA600D24F0DC
:100D5200601324047014120CB280E8120DA280E316
:100D6200120DA380DE120DA480D97F0A120C4580D9
:010D7200D2AE
:100CB200120D99AF17BFBB0122EF120D1C0CEDA153
:100CC2000CF9A50D01AD0D05B50CFDBD0CF5E30C40
:100CD200E9E70CE1E90CE5F30CF1F700000D09E49A
:100CE200FF80267F0180227F02801E7F03801A7F81
:100CF2000480167F0580127F06800E7F07800A7FA0
:0E0D02000880067F0980027F0A120C4580A53A
:010DA200222E
:010DA300222D
:010DA400222C
:03000000020D8D61
:0C0D8D00787FE4F6D8FD758121020D424C
:0C0D1000A42582F582E5F03583F58322EE
:100D1C00D083D082F8E4937012740193700DA3A366
:100D2C0093F8740193F5828883E47374029368607A
:060D3C00EFA3A3A380DF7A
:00000001FF
