:1008000000010002000400080010002000400080E9
:1008100001000200040008001000200040008000D9
:100820000000000000000000000000000018001898
:1008300000240024004200420042004200420042E4
:100840000042004200420042004200420042004298
:100850000024002400180018000000000000000020
:100860000000000000000000000000000018000868
:100870000024000E00420008004200080042000868
:100880000042000800420008004200080042000840
:10089000002400080018003E0000000000000000D6
:1008A0000000000000000000000000000018003CF4
:1008B0000024004200420042004200420042002068
:1008C00000420020004200100042000800420004E4
:1008D000002400420018007E00000000000000001C
:1008E0000000000000000000000000000018003CB4
:1008F0000024004200420042004200200042001852
:1009000000420020004200400042004000420042FD
:10091000002400220018001C00000000000000005D
:10092000000000000000000000000000001800208F
:10093000002400300042002800420024004200242D
:1009400000420022004200220042007E00420020BD
:1009500000240020001800780000000000000000C3
:100960000000000000000000000000000018007EF1
:100970000024000200420002004200020042001A6D
:100980000042002600420040004200400042004277
:10099000002400220018001C0000000000000000DD
:1009A00000000000000000000000000000180038F7
:1009B0000024002400420002004200020042001A0B
:1009C0000042002600420042004200420042004233
:1009D000002400240018001800000000000000009F
:1009E0000000000000000000000000000018007E71
:1009F00000240022004200220042001000420010A9
:100A000000420008004200080042000800420008BE
:100A1000002400080018000800000000000000008A
:100A20000000000000000000000000000018003C72
:100A300000240042004200420042004200420024E2
:100A400000420018004200240042004200420042DE
:100A5000002400420018003C0000000000000000DC
:100A60000000000000000000000000000018001856
:100A700000240024004200420042004200420042A2
:100A80000042006400420058004200400042004022
:100A9000002400240018001C0000000000000000DA
:100AA0000000000000000000003C00F00066009C18
:100AB0000043008200000000000000000000000071
:100AC0000000000000000000003000180060000876
:100AD00000C000070000000000000000000000004F
:020FF9008F095E
:100FFB00E4F50A75F040E509A42422F582E5F03406
:10100B0008F58375F004E50A120D81740193F4FF62
:10101B0075F040E509A42420F582E5F03408F5834A
:10102B0075F004E50A120D81740193F4FDE50A25B0
:10103B00E02400F582E43408F583E493FBE50A250C
:10104B00E02401F582E43408F583E493F550120FA4
:0A105B008B050AE50AC394104099C2
:011065002268
:100F8B00E4FEEFC4131313540124FF92B4EF25E0D6
:100F9B00FFC2B6D2B60EBE08E9E4FEEDC4131313BE
:100FAB00540124FF92B4ED25E0FDC2B6D2B60EBEBD
:100FBB0008E9E4FEEBC4131313540124FF92B4EBC2
:100FCB0025E0FBC2B6D2B60EBE08E9E4FEE550C47E
:100FDB00131313540124FF92B4E55025E0F550C2CE
:0D0FEB00B6D2B60EBE08E6C2B5D2B5C2B58C
:010FF80022D6
:041101007F017E00EC
:10110500EF1FAA0670011E4A600BE4FDEDC3940DA6
:0511150050EE0D80F713
:01111A0022B2
:09114C00D288D2A8D2AFD2B2229F
:03000300020DB338
:100DB300C0E0C083C082C0D075D000C000C002C0F4
:070DC30004C005C006C007D3
:100DCA00755D007F467E0012110530B203020E9552
:100DDA009003E820B218D3E5829400E5839400409A
:100DEA000D121101E582158270E9158380E520B2A2
:100DFA0003020E959001F430B218D3E5829400E50F
:100E0A00839400400D121101E582158270E9158361
:100E1A0080E5E4FC75080090003C20B218D3E58216
:100E2A009400E5839400400D121101E58215827049
:100E3A00E9158380E59001F430B223D3E58294006A
:100E4A00E58394004018121101055DE58215827050
:100E5A00021583E55DD3941E40DED2A8802D745E10
:100E6A002CF8C000E6C313D000F6E55DC394084031
:100E7A0008745E2CF8E64480F6755D000508E508FE
:0B0E8A00C3940840920CEC64047089D3
:100E9500D007D006D005D004D002D000D0D0D08263
:050EA500D083D0E03213
:1010C10012114CAF60EF245F601C24BA601024F051
:1010D100601C2404702075800112106680E5758003
:1010E1000312114180DD75800712111B80D57580B7
:1010F1000F12112880CDE4F5807F0A120FF980C309
:10106600AF60BFBB0122EF120D8D109EA110AAA585
:1010760010B2AD10B6B510AEBD10A6E3109AE710CB
:1010860092E91096F310A2F7000010BAE4FF80264A
:101096007F0180227F02801E7F03801A7F048016D4
:1010A6007F0580127F06800E7F07800A7F088006F4
:0B10B6007F0980027F0A120FF980A55D
:0B114100AF60BFBB0122120EAA80F5B8
:0D111B00AF60BFBB01227F08120FF980F307
:0D112800AF60BFBB01227F09120FF980F3F9
:100AE0000001000200040008001000200040008007
:100AF00001000200040008001000200040008000F7
:100B000000000000000000000000000000000000E5
:100B100000000000000000000000000000000000D5
:100B200010042002F80F88088808F80F8808880841
:100B3000F80F80008000FE3F800080000000000071
:100B40000002080208020802F81F08000800080056
:100B5000F807080408040804040402040000000064
:100B60000800880F8808BE08880888089C08AC0818
:100B70008A0888088808482848282830000000008B
:100B8000F83F08020801C81F4810C81F4810C81FB6
:100B900008024812482224220402820300000000B6
:100BA0000000C01F5E124812C81F48125E12C81F04
:100BB00008020802D81F06020002E03F0000000001
:100BC0000000FC07100410021002100F100850045F
:100BD0005004880208018402620C183000000000F2
:100BE00080000001FC3F0400840004110412141270
:100BF00024104408440804040402F23F00000000EA
:100C00000000F83F082108210821F83F08210821A9
:100C1000F83F0821082104210421023800000000C7
:100C200000000000000000000000000000000000C4
:100C300000000000000000000000000000000000B4
:100C4000FF0B00FF0B20FF0B40FF0B60FF0B80FF33
:0E0C50000BA0FF0BC0FF0BE0FF0C00FF0C2001
:100EAA00780F7C007D007BFF7A0A79E07E007F2044
:100EBA00120D2E782F7C007D007BFF7A0C79407E04
:100ECA00007F1E120D2EE560B4BB0122750D007560
:100EDA000E14E4F509F50AAF0AEF25E0240FF8E647
:100EEA00FCEF25E02410F8E6F550E50A250CFFE5AD
:100EFA0009350BFEEF25E0FFEE33FEAB2FE5312F70
:100F0A00F9E5303EFA900001120D54F4FFC007E5EE
:100F1A000A250CFFE509350BFEEF25E0FFEE33AAA3
:100F2A0030A9318F82F583120D54F4FDAB04D0073A
:100F3A00120F8B050AE50A70020509C39410E50928
:100F4A00648094804091E4F550FB7DFF7FFF120F8F
:100F5A008BE50E150E7002150DD3E50E9400E50D06
:100F6A00648094804003020EDC050CE50C700205D7
:100F7A000B6482450B6003020ED0F50BF50C020ED2
:010F8A00D096
:03000000021135B5
:0C113500787FE4F6D8FD7581630210C1DC
:100C5E00E709F608DFFA8046E709F208DFFA803E78
:100C6E0088828C83E709F0A3DFFA8032E309F60865
:100C7E00DFFA8078E309F208DFFA807088828C83CD
:100C8E00E309F0A3DFFA806489828A83E0A3F60881
:100C9E00DFFA805889828A83E0A3F208DFFA804C5B
:100CAE0080D280FA80C680D4806980F28033801032
:100CBE0080A680EA809A80A880DA80E280CA80339B
:100CCE0089828A83ECFAE493A3C8C582C8CCC58313
:100CDE00CCF0A3C8C582C8CCC583CCDFE9DEE780E3
:100CEE000D89828A83E493A3F608DFF9ECFAA9F062
:100CFE00EDFB2289828A83ECFAE0A3C8C582C8CCB8
:100D0E00C583CCF0A3C8C582C8CCC583CCDFEADED0
:100D1E00E880DB89828A83E493A3F208DFF980CC32
:100D2E0088F0EF60010E4E60C388F0ED2402B4042B
:100D3E000050B9F582EB2402B4040050AF232345D2
:060D4E008223900CAE733D
:100D5400BB010CE58229F582E5833AF583E0225054
:100D640006E92582F8E622BBFE06E92582F8E2229E
:0D0D7400E58229F582E5833AF583E49322B8
:0C0D8100A42582F582E5F03583F583227D
:100D8D00D083D082F8E4937012740193700DA3A3F5
:100D9D0093F8740193F5828883E473740293686009
:060DAD00EFA3A3A380DF09
:00000001FF
