:100DBA00000100020004000800100020004000802A
:100DCA00010002000400080010002000400080001A
:100DDA0000000000000000000000000000180018D9
:100DEA000024002400420042004200420042004225
:100DFA0000420042004200420042004200420042D9
:100E0A000024002400180018000000000000000060
:100E1A0000000000000000000000000000180008A8
:100E2A000024000E004200080042000800420008A8
:100E3A000042000800420008004200080042000880
:100E4A00002400080018003E000000000000000016
:100E5A000000000000000000000000000018003C34
:100E6A0000240042004200420042004200420020A8
:100E7A000042002000420010004200080042000424
:100E8A00002400420018007E00000000000000005C
:100E9A000000000000000000000000000018003CF4
:100EAA000024004200420042004200200042001892
:100EBA00004200200042004000420040004200423E
:100ECA00002400220018001C00000000000000009E
:100EDA0000000000000000000000000000180020D0
:100EEA00002400300042002800420024004200246E
:100EFA0000420022004200220042007E00420020FE
:100F0A000024002000180078000000000000000003
:100F1A000000000000000000000000000018007E31
:100F2A000024000200420002004200020042001AAD
:100F3A0000420026004200400042004000420042B7
:100F4A00002400220018001C00000000000000001D
:100F5A000000000000000000000000000018003837
:100F6A000024002400420002004200020042001A4B
:100F7A000042002600420042004200420042004273
:100F8A0000240024001800180000000000000000DF
:100F9A000000000000000000000000000018007EB1
:100FAA0000240022004200220042001000420010E9
:100FBA0000420008004200080042000800420008FF
:100FCA0000240008001800080000000000000000CB
:100FDA000000000000000000000000000018003CB3
:100FEA000024004200420042004200420042002423
:100FFA00004200180042002400420042004200421F
:10100A00002400420018003C00000000000000001C
:10101A000000000000000000000000000018001896
:10102A0000240024004200420042004200420042E2
:10103A000042006400420058004200400042004062
:10104A00002400240018001C00000000000000001A
:10105A000000000000000000003C00F00066009C58
:10106A0000430082000000000000000000000000B1
:10107A0000000000000000000030001800600008B6
:10108A0000C000070000000000000000000000008F
:10109A000000000000000000000000000000000046
:1010AA0000000000000000010020000900100011EB
:1010BA0000100011001000110010001100100011A2
:1010CA0000100010001000100020000800C00007E7
:1010DA0000000000006000000050000000C800404E
:1010EA00004E0021004A0012004A000C004A000C7F
:1010FA00004A0012004E002100C8004000500000C3
:10110A000060000000000000000000000000000075
:10111A00000000000000000000840002008C0002B1
:10112A000094000200A4000200C40002008400022D
:10113A000084000200C4000200A40002009400021D
:10114A00008C000200840002000000000000000081
:10115A0000000000000000000041001000610018BB
:10116A0000510014004900120045001100C300108C
:10117A0000C300100045001100490012005100147C
:10118A00006100180041001000000000000000008B
:10119A00000000000000000000080082001800861D
:1011AA000028008A00480092008800A2000800C3B4
:1011BA00000800C3008800A2004800920028008AA4
:1011CA0000180086000800820000000000000000ED
:1011DA0000000000007F001C0042002200020041C3
:1011EA0000120041001E0041001200410002005D91
:1011FA0000420022007F003C000000400000000086
:10120A0000000000000000000000000000000000D4
:10121A000080000000C0000100A00002009000044D
:10122A0000800000008000000080000000800000B4
:10123A0000000000009100090051000A0051000A54
:10124A000051000A0051000A004A000A008400798D
:10125A000080000000800000008000000080000084
:10126A000090000400A0000200C0000100800000FD
:10127A00009100090051000A0051000A0051000AB9
:10128A000051000A0051000A004A000A008400794D
:10129A000000000000000000003F007E00420084C1
:1012AA00008200840082008400420084003E007CA8
:1012BA00002200040042000400420004004200042C
:1012CA0000C7000F0000000000000000000000003E
:1012DA000000000000E70000004200000042000099
:1012EA0000420008004200040042000200420001DD
:1012FA0000C20000007C000000200077001000916E
:10130A000008009600040094000200770000000024
:051C9100900002EFF0DD
:101C9600E4A3F0900003E0FEC394105069900002A4
:101CA600E0FD75F040A424DCF582E5F0340DF58303
:101CB60075F004EE120D5C740193F4FF75F040EDBF
:101CC600A424DAF582E5F0340DF58375F004EE12FE
:101CD6000D5C740193F4FD900003E025E024BAF551
:101CE60082E4340DF583E493FBEE25E024BBF58214
:101CF600E4340DF583E493900148F0121D0D900035
:061D060003E004F0808DF3
:011D0C0022B4
:101D0D00E4FEEFC4131313540124FF92B4EF25E046
:101D1D00FFC2B6D2B60EEEB408E8E4FEEDC413135E
:101D2D0013540124FF92B4ED25E0FDC2B6D2B60ED8
:101D3D00EEB408E8E4FEEBC4131313540124FF9230
:101D4D00B4EB25E0FBC2B6D2B60EEEB408E8E4FE65
:101D5D00900148E0FFC4131313540124FF92B4EF14
:101D6D0025E0F0C2B6D2B60EEEB408E4C2B5D2B5D7
:021D7D00C2B5ED
:011D7F002241
:041E320041018601E3
:041E5B007F017E0085
:101E5F00EF1FAA0670011E4A600BE4FDEDC3940D3F
:051E6F0050EE0D80F7AC
:011E7400224B
:091E8300D288D2A8D2AFD2B2225B
:030003000215DE05
:1015DE00C0E0C083C082C0D075D000C002C003C0BE
:0715EE0004C005C006C007A0
:1015F50090017FE4F07F46FE121E5F30B2030217B2
:10160500259000007403F0A374E8F020B220D39075
:101615000001E09400900000E094004011121E5B70
:10162500A3E024FFF0900000E034FFF080DD20B25D
:10163500030217129000007401F0A374F4F030B2A5
:1016450020D3900001E09400900000E09400401148
:10165500121E5BA3E024FFF0900000E034FFF08051
:10166500DDE4FCE4FB900000E4F0A3743CF020B260
:1016750020D3900001E09400900000E09400401118
:10168500121E5BA3E024FFF0900000E034FFF08021
:10169500DD9000007401F0A374F4F030B233D39000
:1016A5000001E09400900000E094004024121E5BCD
:1016B50090017FE004F0900001E024FFF09000002D
:1016C500E034FFF090017FE0D3941E40CED2A88095
:1016D5004F74802CF582E43401F583E0C313F09058
:1016E500017FE0C39408400E74802CF582E4340138
:1016F500F583E04480F090017FE4F00BEB64086033
:101705000302166A0CEC64046003021668900183F8
:10171500E0F4FF900182E0B507069001867401F0C0
:10172500D007D006D005D004D003D002D0D0D082C7
:05173500D083D0E0327A
:101DF000121E83900182E0FF24F8602424F060101A
:101E000024BA601424527020759001121ABA80E32B
:101E1000759003121E7580DB75900712000680D343
:101E200075900F121D8080CBE4F5907F0A121C91F3
:021E300080C16F
:101ABA00900182E0FFB4460122EF120D681B430732
:101ACA001B17081B47091B0B0C1B530D1B4B151B24
:101ADA0007161B0F181B4F191B1B1C1B3B401B23F4
:101AEA00421B3F431B37441B2F451B33471B2B4AC3
:101AFA001B27521B1F5A1B135E00001B5BE4FF804F
:101B0A004A7F0180467F0280427F03803E7F0480B5
:101B1A003A7F0580367F0680327F07802E7F0880D5
:101B2A002A7F0980267F0B80227F0C801E7F0D80F2
:101B3A001A7F0E80167F0F80127F10800E7F118011
:101B4A000A7F1280067F1380027F14121C91021AE8
:101B5A00BAE4900148F0FB7DFF7FFF121D0D021AC7
:011B6A00BAC0
:0E1E7500900182E0FFB44601221219A380F210
:101D8000900182E0B4460122E4900002F09000024B
:101D9000E0C3941050EAE0FE75F002A42454F582EA
:101DA000E5F03401F583E0F4FF75F002EEA424536E
:101DB000F582E5F03401F583E0F4FD900002E07572
:101DC000F002A424BAF582E5F0340DF583E493FB28
:101DD00075F002EEA424BBF582E5F0340DF583E442
:101DE00093900148F0121D0D900002E004F0809DD8
:10148000000000000000000000000000000000005C
:10149000000000000000000000000000000000004C
:1014A00010042002F80F88088808F80F88088808B8
:1014B000F80F80008000FE3F8000800000000000E8
:1014C0000002080208020802F81F080008000800CD
:1014D000F8070804080408040404020400000000DB
:1014E0000800880F8808BE08880888089C08AC088F
:1014F0008A08880888084828482828300000000002
:10150000F83F08020801C81F4810C81F4810C81F2C
:10151000080248124822242204028203000000002C
:101520000000C01F5E124812C81F48125E12C81F7A
:1015300008020802D81F06020002E03F0000000077
:101540000000FC07100410021002100F10085004D5
:101550005004880208018402620C18300000000068
:1015600080000001FC3F04008400041104121412E6
:1015700024104408440804040402F23F0000000060
:101580000000F83F082108210821F83F0821082120
:10159000F83F08210821042104210238000000003E
:1015A000000000000000000000000000000000003B
:1015B000000000000000000000000000000000002B
:1015C000FF1480FF14A0FF14C0FF14E0FF1500FFFC
:0E15D0001520FF1540FF1560FF1580FF15A0C8
:1019A300E4900006F0A3F078087C007D017BFF7AC9
:1019B3001579C0FE7F1E120C92900182E0B446019D
:1019C30022900004E4F0A37414F0E4900002F0A366
:1019D300F0900002E0FEA3E0FFC39410EE64809455
:1019E300804003021A67900006E0FCA3E0FDEF2DA0
:1019F300FFEE3CFEEF25E0FDEE33FCA3E0FBA3E0AE
:101A0300FAA3E02DF9EA3CFA900001120CB8F4FFB6
:101A1300C007900008A3E0FAA3E0F98D828C83123B
:101A23000CB8F4FD900003E025E0FF900002E033E2
:101A3300FE74BA2FF582740D3EF583E493FB74BBF9
:101A43002FF582740D3EF583E493900148F0D0079F
:101A5300121D0D900003E004F07006900002E004F4
:101A6300F00219D4E4900148F0FB7DFF7FFF121DC3
:101A73000D900005E024FFF0900004E034FFF0D364
:101A8300A3E09400900004E0648094804003021972
:101A9300CD900007E004F07006900006E004F0909B
:101AA3000006E07004A3E0648260030219BC9000A6
:071AB30006F0A3F00219BCCC
:10173A00000000000000000000000000000000009F
:10174A00000000000000000000000000000000008F
:10175A00000000000000000000000000000000007F
:10176A00000000000000000000000000000000006F
:10177A00000000000000000000000000000000005F
:10178A00000000000000000000000000000000004F
:10179A00000000000000000000000000000000003F
:1017AA00000000000000000000000000000000002F
:1017BA00000000000000000000000000000000001F
:1017CA00000000000000000000000000000000000F
:1017DA0000000000000000000000000000000000FF
:1017EA0000000000000000000000000000000000EF
:1017FA0000000000000000000000000000000000DF
:10180A0000000000000000000000000000000000CE
:10181A0000000000000000000000000000000000BE
:10182A0000000000000000000000000000000000AE
:10183A00010000000000000000000000000000009D
:10184A00000000000000000000000000000000008E
:10185A00000000000000000000000000000000007E
:10186A00000000000000000000000000000000006E
:101E360060200153000000000000000000000000C8
:101E4600000000000000000000000000000000008C
:041E56000000000088
:10000600E4900003F0A3F078057C007D017BFF7A85
:1000160017793A7E01FF120C9278057C017D017BEF
:10002600FF7A18793A7E007F20120C9278257C019F
:100036007D017BFF7A18795A7E007F20120C929000
:100046000182E0B4460122E4900002F0900002E052
:10005600FE25E02406F582E43401F583E0F4FFEEA4
:1000660025E02405F582E43401F583E0F4FD9000F3
:1000760002E075F002A424BAF582E5F0340DF583AA
:10008600E493FB75F002EEA424BBF582E5F0340D93
:10009600F583E493900148F0121D0D900002E0FEF6
:1000A60025E02426F582E43401F583E0F4FFEE250D
:1000B600E02425F582E43401F583E0F4FD900002A6
:1000C600E075F002A424BAF582E5F0340DF583E478
:1000D60093FB75F002EEA424BBF582E5F0340DF532
:1000E60083E493900148F0121D0D900002E004F0A5
:1000F600E0C394105003020052900186E064016050
:1001060003020045900182E0FFF5A0EF24F370039F
:1001160002071424F770030205EE24FE700302039F
:100126000814700302074A24FD70030204CB24CA94
:1001360070030203E824F8700302022924526003C4
:10014600020045E4900186F0FE7F20FD7B017A01E6
:100156007905120D8EE4900148F0FB7DFF7FFF12BA
:100166001D0D900004E070037410F0900004E0147C
:10017600F0E0FFC394084054EF5407FCE4120876FD
:10018600900149120D1F7F007E007D007C401213F6
:100196001AC004C005C006C007900003E025E0248D
:1001A60006F582E43401F583E0FCE4120876D00318
:1001B600D002D001D00012077B1208AA900003E0FB
:1001C60025E02406F582E434010204C4900004E02C
:1001D6005407FCE4120876900149120D1F7F007E39
:1001E600007D007C4012131AC004C005C006C0077B
:1001F600900003E025E02405F582E43401F583E070
:10020600FCE4120876D003D002D001D00012077B9E
:100216001208AA900003E025E02405F582E43401E3
:100226000204C4E4900186F0FE7F20FD7B017A0182
:100236007905120D8EE4900148F0FB7DFF7FFF12D9
:100246001D0D900004E004F0E0B41002E4F090000C
:1002560004E0FFC394084053EF5407FCE412087609
:10026600900149120D1F7F007E007D007C40121315
:100276001AC004C005C006C007900003E025E024AC
:1002860006F582E43401F583E0FCE4120876D00337
:10029600D002D001D00012077B1208AA900003E01A
:1002A60025E02406F582E434018054900004E054ED
:1002B60007FCE4120876900149120D1F7F007E00AC
:1002C6007D007C4012131AC004C005C006C007900A
:1002D6000003E025E02405F582E43401F583E0FC23
:1002E600E4120876D003D002D001D00012077B12A8
:1002F60008AA900003E025E02405F582E434010213
:1003060004C4E4900186F0FE7F20FD7B017A01792A
:1003160005120D8EE4900148F0FB7DFF7FFF121D54
:100326000D900003E070037410F0900003E014F0E9
:10033600A3E0FFC394084053EF5407FCE412087689
:10034600900149120D1F7F007E007D007C40121334
:100356001AC004C005C006C007900003E025E024CB
:1003660006F582E43401F583E0FCE4120876D00356
:10037600D002D001D00012077B1208AA900003E039
:1003860025E02406F582E434018054900004E0540C
:1003960007FCE4120876900149120D1F7F007E00CB
:1003A6007D007C4012131AC004C005C006C0079029
:1003B6000003E025E02405F582E43401F583E0FC42
:1003C600E4120876D003D002D001D00012077B12C7
:1003D60008AA900003E025E02405F582E434010232
:1003E60004C4E4900186F0FE7F20FD7B017A01794A
:1003F60005120D8EE4900148F0FB7DFF7FFF121D74
:100406000D900003E004F0E0B41002E4F090000464
:10041600E0FFC394084053EF5407FCE412087690BB
:100426000149120D1F7F007E007D007C4012131AC9
:10043600C004C005C006C007900003E025E02406FE
:10044600F582E43401F583E0FCE4120876D003D0AB
:1004560002D001D00012077B1208AA900003E02503
:10046600E02406F582E434018054900004E0540749
:10047600FCE4120876900149120D1F7F007E007D74
:10048600007C4012131AC004C005C006C0079000C5
:1004960003E025E02405F582E43401F583E0FCE47D
:1004A600120876D003D002D001D00012077B1208C2
:1004B600AA900003E025E02405F582E43401F583E3
:1004C600EFF0020045E4900186F0900004E0FFC3DF
:1004D60094084077900003E0C454F02405F582E4C4
:1004E6003400F583E5822FF582E43583F583E060F9
:1004F60003020045900004E05407FCE412087690DD
:100506000149120D1F7F007E007D007C4012131AE8
:10051600C004C005C006C007900003E025E02426FD
:10052600F582E43401F583E0FCE4120876D003D0CA
:1005360002D001D00012077B1208AA900003E0FE49
:1005460025E02426F582E434018077900004E0FF5C
:10055600900003E0C454F02405F582E43400F583EA
:10056600E5822FF582E43583F583E06003020045DA
:10057600EF5407FCE4120876900149120D1F7F0024
:100586007E007D007C4012131AC004C005C006C060
:1005960007900003E025E02425F582E43401F58385
:1005A600E0FCE4120876D003D002D001D000120796
:1005B6007B1208AA900003E0FE25E02425F582E4DC
:1005C6003401F583EFF0900004E0FFEEC454F0240C
:1005D60005F582E43400F583E5822FF582E4358360
:1005E600F5837401F0020045E4900186F090000462
:1005F600E0FFC394084079900003E0C454F024055A
:10060600F582E43400F583E5822FF582E43583F53F
:1006160083E064016003020045900004E05407FC97
:10062600E4120876900149120D1F7F007E007D00BE
:100636007C4012131AC004C005C006C00790000310
:10064600E025E02426F582E43401F583E0FCE4129B
:100656000876D003D002D001D0001207771208AA7C
:10066600900003E0FE25E02426F582E4340180793B
:10067600900004E0FF900003E0C454F02405F582E6
:10068600E43400F583E5822FF582E43583F583E0D3
:1006960064016003020045EF5407FCE412087690FB
:1006A6000149120D1F7F007E007D007C4012131A47
:1006B600C004C005C006C007900003E025E024255D
:1006C600F582E43401F583E0FCE4120876D003D029
:1006D60002D001D0001207771208AA900003E0FEAC
:1006E60025E02425F582E43401F583EFF09000043B
:1006F600E0FFEEC454F02405F582E43400F583E50A
:10070600822FF582E43583F583E4F0020045E49018
:100716000186F0900002F0900002E0C394204003AE
:10072600020045E0FF2425F582E43401F583E0FE6E
:1007360074532FF582E43401F583EEF0900002E065
:1007460004F080D3E4900186F0900002F09000025D
:10075600E0FFC39420400302004574252FF582E490
:0E0766003401F583E4F0900002E004F080DF3F
:10077400020916E86480F8E933E83360110460F094
:10078400ED33EC337009E8FCE9FDEAFEEBFF2204EB
:1007940060DED3EB9FEA9EE99DE8C2E78CF0C2F7E6
:1007A40095F0400CE8CCF8E9CDF9EACEFAEBCFFBB2
:1007B4001208E185D0F05804700320D5B3E8047022
:1007C400075002B2D502092092D5EC0460F7E4CCBC
:1007D400C0E0C398F8603B94186008400DD0E0FB7B
:1007E4000208F8E4FBFAC9FC8028E830E406E4C90E
:1007F400FBE4CAFCE830E305E4C9CACBFCE85407CF
:100804006010F8C3E913F9EA13FAEB13FBEC13FCD9
:10081400D8F130F52FC3E49CFCEF9BFFEE9AFEED7C
:1008240099FDD0E0FBEF4E4D4C701222DB03020920
:100834001DEC2CFCEF33FFEE33FEED33FDED30E722
:10084400EB0208F8EF2BFFEE3AFEED39FDD0E0FBAA
:1008540050130BBB0003020920ED13FDEE13FEEF52
:0808640013FFEC13FC0208F87D
:10086C0075F020800E75F010800575F0087D007E07
:10087C00007F003392D530D503120CE5EC334010D9
:10088C00EF33FFEE33FEED33FDEC33FCD5F0ED2210
:0E089C00E5F0247EA2D513CC92E7CDCEFF224C
:1008AA00EDD2E7CD33EC3392D524814006E4FFFE46
:1008BA00FDFC22FCE4CFCECDCC24E0501174FF80A5
:1008CA00EDC3CC13CCCD13CDCE13CECF13CF047042
:0708DA00F030D5DE020CE551
:10131A00900145120D1FE4FFFE7D807C3F90014540
:10132A00E0F8A3E0F9A3E0FAA3E0FB120A4B700687
:10133A00900145021474900145E0FCA3E0FDA3E08E
:10134A00FEA3E0FF12092BFBA3E0FCA3E0FDA3E050
:10135A00FEA3E0FF12092BFFB40108E4FFFE7D8023
:10136A007C3F22EF64046029EB64046024EBB4013F
:10137A0030E4FFFEFDFC900149E0F8A3E0F9A3E0A8
:10138A00FAA3E0FB120A4B60084006E4FFFEFDFCEC
:10139A0022900149120D2BFFFFFFFF900149021411
:1013AA0074E490014DF0A3F0FFFEFDFC900145E0CE
:1013BA00F8A3E0F9A3E0FAA3E0FB120A4B505F900E
:1013CA000149E0FCA3E0FDA3E0FEA3E0FF1208AAA6
:1013DA0090014DEEF0A3EFF0FDCCEECCEC120871CB
:1013EA00C8ECC8C9EDC9CAEECACBEFCB900149E037
:1013FA00FCA3E0FDA3E0FEA3E0FF120777E4FBFAFB
:10140A00F9F8120A4B708A900145E0FCA3E0FDA3AB
:10141A00E0FEA3E0FF120AC4900145120D1F9001DD
:10142A0045E0FCA3E0FDA3E0FEA3E0FF1218AE90A6
:10143A000149E0F8A3E0F9A3E0FAA3E0FB120945A9
:10144A00121BA3900149120D1F90014EE030E017C4
:10145A00900149E0FCA3E0FDA3E0FEA3E0FF120A2D
:10146A00C4900149120D1F900149E0FCA3E0FDA3BD
:06147A00E0FEA3E0FF22EA
:1008E100E9D2E7C933E833F892D5EDD2E7CD33EC5D
:0708F10033FC5002B2D522D6
:1008F800EC30E7100FBF000C0EBE00080DBD000461
:100908000BEB6014A2D5EB13FCED92E7FD2274FF0C
:10091800FCFDFEFF22E480F8A2D574FF13FC7D8065
:03092800E480EF79
:10092B00ED33EC33601004700FED547F70057402DF
:0A093B0092E0227404220422E42258
:10094500EC4D6011E8497017ED33EC3304600DE4AC
:10095500FCFFFEFD22E933E8330470F802091612A4
:1009650008E158046009E4CC2481500628500902A6
:10097500092028400302091DC0E0EB4A7044B980F4
:1009850006D0E0FB02090CEF4E701CBD8008EBFFA2
:10099500EAFEE9FD80EBE98DF0A4FEE5F0020A2E02
:1009A500E9CDF9EAFEEBFFEF89F0A4FCE5F0CE898D
:1009B500F0A42EFFE435F0CD89F0A42DFEE435F04A
:1009C5008067EF4E7005BD80D780C3EF8BF0A4AC78
:1009D500F0EE8BF0A42CFCE435F0F8EF8AF0A42CB3
:1009E500E5F038FCE433CB8DF0A42CFCE5F03BF8C6
:1009F500EE8AF0A42CFCE5F038F8E433CF89F0A4B6
:100A05002CFCE5F038CF3400CE89F0A42FFFE5F0BB
:100A15003EFEE433C98DF0A42EFEE5F039CD8AF013
:100A2500A42FFFE5F03EFEE43DFD33D0E0FB50078B
:100A35000BBB000F020920EC2CFCEF33FFEE33FE5D
:060A4500ED33FD0208F88C
:100A4B0074F8CC6480CCC86480C8F58204604FC352
:100A5B00EB9FF5F0EA9E42F0E99D42F0E89C45F0F1
:100A6B00603C501DE5825FFFE582D313CB5BCBF47B
:100A7B002B5582FB50280ABA002409B900200880A4
:100A8B001DE5825BFBE582D313CF5FCFF4C3132F3E
:100A9B005582FF50090EBE00050DBD00010CC3EBC6
:100AAB009FF5F0EA9E42F0E99D42F0E89C45F0602C
:090ABB0007CC4820E701B3EC224E
:100AC400ED33EC33600A047003BD8004ECB2E7FC40
:010AD40022FF
:101B6B0033DA929E35B16011377FE5FE39218489D6
:101B7B003AAEC3FF3C1D955B3D6358473E75FDF088
:101B8B003F3172183F800000C2D5020920020916AE
:101B9B00BD80FA50F302091DED33EC330460F17B89
:101BAB003B7AAA79B8783F120945ED33EC3392D5DD
:101BBB00247B5011A2D570DB500BED4480240450D4
:101BCB0004A2D580CEEFFBEEFAEDF9ECF81208AAE1
:101BDB00EFF582F404FC12087612077BC082901B8F
:101BEB006B7409120B84ED33CC33D0F092D525F006
:0A1BFB00A2D57001C313CC13FD2224
:10187A003E9248DA3ECCCCCD3F2AAAAB40000000CB
:10188A003F8000003F9837F03FB504F33FD744FC50
:10189A003E3172173EB172173F0515913EDE5BD994
:1018AA00D2008002C200EDD2E7F8CD33EC330470E7
:1018BA000BBD800592D502092002091640FBD314FC
:1018CA0060F2F5F07C3FEE7A00C39496C8948B40A0
:1018DA00230AC89469C8941A401A0AC89468C89412
:1018EA001F40110AC8945AC89425400805F07A0086
:1018FA00CDC2E7CDC0F090014F120D1FEA2323C0DD
:10190A00E0248AF582E43418F583120D0F12077B5E
:10191A00ECC0E0EDC0E0EEC0E0EFC0E0120CF390E6
:10192A00014F120D03120777D0E0FBD0E0FAD0E0A6
:10193A00F9D0E0B2E7F8120AD890014F120D1F90C1
:10194A00187A7403120B7590014F120D0312094590
:10195A00D0E0600F2496F582E43418F583120D0F57
:10196A0012077B90014F120D1FD0E0C3947FFDE454
:10197A009400FC1208717B187A727931783F120947
:10198A004590014F120D0312077B30000B7BD97A69
:09199A005B79DE783E120945225A
:100AD500020920EC5D046005E8590470030209165B
:100AE5001208E1580460F6EC4860F2EC7004FDFE73
:100AF500FF22C860DB2481C85009C39860025006F4
:100B050002091D9850CAF582E9294B4A7005AB8246
:100B150002090C75F0007C1A7880C3EF9BEE9AED04
:100B250099400DC3EF9BFFEE9AFEED99FDE842F06B
:100B3500DC23ACF0D0E0FFD0E0FED0E0FDAB8220BE
:100B4500E7101BEB60BAEC2CFCEF33FFEE33FEED48
:100B550033FD0208F8E803F830E705C0F075F0004A
:100B6500EF2FFFEE33FEED33FD40B830E7C280AA2C
:100B7500C0E0EFFBEEFAEDF9ECF8120945D0E0F52F
:100B8500F0EFFBEEFAEDF9ECF8120CF3A3A3A3A337
:100B9500E8C0E0E9C0E0EAC0E0EBC0E0C0F012095F
:100BA50045120D0FA3A3A3A312077BD0F0D0E0FB42
:0D0BB500D0E0FAD0E0F9D0E0F8D5F0D4227D
:03000000021C05DA
:0C1C0500787FE4F6D8FD758120021C4CAD
:100BC200E709F608DFFA8046E709F208DFFA803E15
:100BD20088828C83E709F0A3DFFA8032E309F60802
:100BE200DFFA8078E309F208DFFA807088828C836A
:100BF200E309F0A3DFFA806489828A83E0A3F6081E
:100C0200DFFA805889828A83E0A3F208DFFA804CF7
:100C120080D280FA80C680D4806980F280338010CE
:100C220080A680EA809A80A880DA80E280CA803337
:100C320089828A83ECFAE493A3C8C582C8CCC583AF
:100C4200CCF0A3C8C582C8CCC583CCDFE9DEE7807F
:100C52000D89828A83E493A3F608DFF9ECFAA9F0FE
:100C6200EDFB2289828A83ECFAE0A3C8C582C8CC54
:100C7200C583CCF0A3C8C582C8CCC583CCDFEADE6D
:100C8200E880DB89828A83E493A3F208DFF980CCCF
:100C920088F0EF60010E4E60C388F0ED2402B404C8
:100CA2000050B9F582EB2402B4040050AF2323456F
:060CB2008223900C127376
:100CB800BB010CE58229F582E5833AF583E02250F1
:100CC80006E92582F8E622BBFE06E92582F8E2223B
:0D0CD800E58229F582E5833AF583E4932255
:0E0CE500C3E49FFFE49EFEE49DFDE49CFC2220
:100CF300E493FC740193FD740293FE740393FF2247
:0C0D0300E0F8A3E0F9A3E0FAA3E0FB2273
:100D0F00E493F8740193F9740293FA740393FB223A
:0C0D1F00ECF0A3EDF0A3EEF0A3EFF02247
:100D2B00A8828583F0D083D082120D42120D42121D
:100D3B000D42120D42E473E493A3C583C5F0C58342
:100D4B00C8C582C8F0A3C583C5F0C583C8C582C812
:010D5B002275
:0C0D5C00A42582F582E5F03583F58322A2
:100D6800D083D082F8E4937012740193700DA3A31A
:100D780093F8740193F5828883E47374029368602E
:060D8800EFA3A3A380DF2E
:100D8E00EF4E6012EF60010EEDBB010B89828A837C
:100D9E00F0A3DFFCDEFA2289F05007F709DFFCA989
:0C0DAE00F022BBFEFCF309DFFCA9F022E0
:101C1100021DF0E493A3F8E493A34003F68001F2DC
:101C210008DFF48029E493A3F85407240CC8C333D4
:101C3100C4540F4420C8834004F456800146F6DFA3
:101C4100E4800B0102040810204080901E32E47EE3
:101C5100019360BCA3FF543F30E509541FFEE49398
:101C6100A360010ECF54C025E060A840B8E493A35F
:101C7100FAE493A3F8E493A3C8C582C8CAC583CA8A
:101C8100F0A3C8C582C8CAC583CADFE9DEE780BE42
:011E5A000087
:00000001FF
