:100D1E0000010002000400080010002000400080C6
:100D2E0001000200040008001000200040008000B6
:100D3E000000000000000000000000000018001875
:100D4E0000240024004200420042004200420042C1
:100D5E000042004200420042004200420042004275
:100D6E0000240024001800180000000000000000FD
:100D7E000000000000000000000000000018000845
:100D8E000024000E00420008004200080042000845
:100D9E00004200080042000800420008004200081D
:100DAE00002400080018003E0000000000000000B3
:100DBE000000000000000000000000000018003CD1
:100DCE000024004200420042004200420042002045
:100DDE0000420020004200100042000800420004C1
:100DEE00002400420018007E0000000000000000F9
:100DFE000000000000000000000000000018003C91
:100E0E00002400420042004200420020004200182E
:100E1E0000420020004200400042004000420042DA
:100E2E00002400220018001C00000000000000003A
:100E3E00000000000000000000000000001800206C
:100E4E00002400300042002800420024004200240A
:100E5E0000420022004200220042007E004200209A
:100E6E0000240020001800780000000000000000A0
:100E7E000000000000000000000000000018007ECE
:100E8E000024000200420002004200020042001A4A
:100E9E000042002600420040004200400042004254
:100EAE00002400220018001C0000000000000000BA
:100EBE0000000000000000000000000000180038D4
:100ECE000024002400420002004200020042001AE8
:100EDE000042002600420042004200420042004210
:100EEE00002400240018001800000000000000007C
:100EFE000000000000000000000000000018007E4E
:100F0E000024002200420022004200100042001085
:100F1E00004200080042000800420008004200089B
:100F2E000024000800180008000000000000000067
:100F3E000000000000000000000000000018003C4F
:100F4E0000240042004200420042004200420024BF
:100F5E0000420018004200240042004200420042BB
:100F6E00002400420018003C0000000000000000B9
:100F7E000000000000000000000000000018001833
:100F8E00002400240042004200420042004200427F
:100F9E0000420064004200580042004000420040FF
:100FAE00002400240018001C0000000000000000B7
:100FBE000000000000000000003C00F00066009CF5
:100FCE00004300820000000000000000000000004E
:100FDE000000000000000000003000180060000853
:100FEE0000C000070000000000000000000000002C
:05166F00900187EFF07F
:10167400E4A3F0900188E0FEC394105069900187C0
:10168400E0FD75F040A42440F582E5F0340DF583C7
:1016940075F004EE120CE6740193F4FF75F040ED5E
:1016A400A4243EF582E5F0340DF58375F004EE12C2
:1016B4000CE6740193F4FD900188E025E0241EF506
:1016C40082E4340DF583E493FBEE25E0241FF582D8
:1016D400E4340DF583E493900168F01216EB900165
:0616E40088E004F0808D97
:0116EA0022DD
:1016EB00E4FEEFC4131313540124FF92B4EF25E06F
:1016FB00FFC2B6D2B60EEEB408E8E4FEEDC4131387
:10170B0013540124FF92B4ED25E0FDC2B6D2B60E00
:10171B00EEB408E8E4FEEBC4131313540124FF9258
:10172B00B4EB25E0FBC2B6D2B60EEEB408E8E4FE8D
:10173B00900168E0FFC4131313540124FF92B4EF1C
:10174B0025E0F0C2B6D2B60EEEB408E4C2B5D2B5FF
:02175B00C2B515
:01175D002269
:04178100410186019B
:04175E007F017E0089
:10176200EF1FAA0670011E4A600BE4FDEDC3940D43
:0517720050EE0D80F7B0
:01177700224F
:09177800D288D2A8D2AFD2B2226D
:030003000212C422
:1012C400C0E0C083C082C0D075D000C002C003C0DB
:0712D40004C005C006C007BD
:1012DB0090017FE4F07F46FE12176230B2030214D6
:1012EB000B9000007403F0A374E8F020B220D390AD
:1012FB000001E09400900000E09400401112175E92
:10130B00A3E024FFF0900000E034FFF080DD20B27A
:10131B00030213F89000007401F0A374F4F030B2E0
:10132B0020D3900001E09400900000E09400401165
:10133B0012175EA3E024FFF0900000E034FFF08072
:10134B00DDE4FCE4FB900000E4F0A3743CF020B27D
:10135B0020D3900001E09400900000E09400401135
:10136B0012175EA3E024FFF0900000E034FFF08042
:10137B00DD9000007401F0A374F4F030B233D3901D
:10138B000001E09400900000E09400402412175EEE
:10139B0090017FE004F0900001E024FFF09000004A
:1013AB00E034FFF090017FE0D3941E40CED2A880B2
:1013BB004F74802CF582E43401F583E0C313F09075
:1013CB00017FE0C39408400E74802CF582E4340155
:1013DB00F583E04480F090017FE4F00BEB64086050
:1013EB00030213500CEC6404600302134E90018350
:1013FB00E0F4FF900182E0B507069001867401F0DE
:10140B00D007D006D005D004D003D002D0D0D082E4
:05141B00D083D0E03297
:10116400000000000000000000000000000000007B
:10117400000000000000000000000000000000006B
:10118400000000000000000000000000000000005B
:10119400000000000000000000000000000000004B
:1011A400000000000000000000000000000000003B
:1011B400000000000000000000000000000000002B
:1011C400000000000000000000000000000000001B
:1011D400000000000000000000000000000000000B
:1011E40000000000000000000000000000000000FB
:1011F40000000000000000000000000000000000EB
:1012040000000000000000000000000000000000DA
:1012140000000000000000000000000000000000CA
:1012240000000000000000000000000000000000BA
:1012340000000000000000000000000000000000AA
:10124400000000000000000000000000000000009A
:10125400000000000000000000000000000000008A
:101264000100000000000000000000000000000079
:10127400000000000000000000000000000000006A
:10128400000000000000000000000000000000005A
:10129400000000000000000000000000000000004A
:1012A400000100020004000800100020004000803B
:1012B400010002000400080010002000400080002B
:10000600E4900003F0A3F078057C007D017BFF7A85
:100016001179647E01FF120C4978057C017D017B14
:10002600FF7A1279647E007F20120C4978257C01C4
:100036007D017BFF7A1279847E007F20120C49783D
:10004600457C017D017BFF7A1279A47E007F201218
:100056000C49121778E4900002F0900002E0FE25A9
:10006600E02406F582E43401F583E0F4FFEE25E0B2
:100076002405F582E43401F583E0F4FD900002E006
:1000860025E02445F582E43401F583E0FBEE25E026
:100096002446F582E43401F583E0900168F01216F7
:1000A600EB900002E0FE25E02426F582E43401F51B
:1000B60083E0F4FFEE25E02425F582E43401F583A0
:1000C600E0F4FD900002E025E02445F582E43401E9
:1000D600F583E0FBEE25E02446F582E43401F58362
:1000E600E0900168F01216EB900002E004F0E0C325
:1000F60094105003020060900186E06401600302E0
:10010600005B900182E0FFF5A0EF24EA7003020590
:10011600DF24FE70030202F924FC70030204BC24EF
:10012600CA70030203D924F8700302021A2452602B
:100136000302005BE4900186F0FE7F20FD7B017ADE
:10014600017905120CF2E4900168F0FB7DFF7FFF58
:100156001216EB900004E070037410F0900004E0B7
:1001660014F0E0FFC394084054EF5407FCE412086F
:100176002D900169120CA97F007E007D007C401243
:100186000FFEC004C005C006C007900003E025E0CE
:100196002406F582E43401F583E0FCE412082DD050
:1001A60003D002D001D0001207321208619000037A
:1001B600E025E02406F582E434010204B59000044B
:1001C600E05407FCE412082D900169120CA97F0087
:1001D6007E007D007C40120FFEC004C005C006C034
:1001E60007900003E025E02405F582E43401F58359
:1001F600E0FCE412082DD003D002D001D000120793
:1002060032120861900003E025E02405F582E4340B
:10021600010204B5E4900186F0FE7F20FD7B017AA1
:10022600017905120CF2E4900168F0FB7DFF7FFF77
:100236001216EB900004E004F0E0B41002E4F09033
:100246000004E0FFC394084053EF5407FCE412088F
:100256002D900169120CA97F007E007D007C401262
:100266000FFEC004C005C006C007900003E025E0ED
:100276002406F582E43401F583E0FCE412082DD06F
:1002860003D002D001D00012073212086190000399
:10029600E025E02406F582E434018054900004E071
:1002A6005407FCE412082D900169120CA97F007E08
:1002B600007D007C40120FFEC004C005C006C007CA
:1002C600900003E025E02405F582E43401F583E09F
:1002D600FCE412082DD003D002D001D00012073260
:1002E600120861900003E025E02405F582E434015C
:1002F6000204B5E4900186F0FE7F20FD7B017A01C1
:100306007905120CF2E4900168F0FB7DFF7FFF1285
:1003160016EB900003E070037410F0900003E014F5
:10032600F0A3E0FFC394084053EF5407FCE412081F
:100336002D900169120CA97F007E007D007C401281
:100346000FFEC004C005C006C007900003E025E00C
:100356002406F582E43401F583E0FCE412082DD08E
:1003660003D002D001D000120732120861900003B8
:10037600E025E02406F582E434018054900004E090
:100386005407FCE412082D900169120CA97F007E27
:10039600007D007C40120FFEC004C005C006C007E9
:1003A600900003E025E02405F582E43401F583E0BE
:1003B600FCE412082DD003D002D001D0001207327F
:1003C600120861900003E025E02405F582E434017B
:1003D6000204B5E4900186F0FE7F20FD7B017A01E0
:1003E6007905120CF2E4900168F0FB7DFF7FFF12A5
:1003F60016EB900003E004F0E0B41002E4F0900085
:1004060004E0FFC394084053EF5407FCE412082DA0
:10041600900169120CA97F007E007D007C40120FBE
:10042600FEC004C005C006C007900003E025E02416
:1004360006F582E43401F583E0FCE412082DD003CE
:10044600D002D001D000120732120861900003E0FA
:1004560025E02406F582E434018054900004E0543B
:1004660007FCE412082D900169120CA97F007E009A
:100476007D007C40120FFEC004C005C006C0079078
:100486000003E025E02405F582E43401F583E0FC71
:10049600E412082DD003D002D001D0001207321288
:1004A6000861900003E025E02405F582E43401F5B7
:1004B60083EFF002005BE4900186F0900004E0FF19
:1004C600C394084077900003E0C454F02405F582F5
:1004D600E43400F583E5822FF582E43583F583E085
:1004E600600302005B900004E05407FCE412082D50
:1004F600900169120CA97F007E007D007C40120FDE
:10050600FEC004C005C006C007900003E025E02435
:1005160026F582E43401F583E0FCE412082DD003CD
:10052600D002D001D000120732120861900003E019
:10053600FE25E02426F582E434018077900004E06D
:10054600FF900003E0C454F02405F582E43400F57E
:1005560083E5822FF582E43583F583E060030200AC
:100566005BEF5407FCE412082D900169120CA97F79
:10057600007E007D007C40120FFEC004C005C00650
:10058600C007900003E025E02425F582E43401F558
:1005960083E0FCE412082DD003D002D001D0001273
:1005A6000732120861900003E0FE25E02425F5825B
:1005B600E43401F583EFF0900004E0FFEEC454F05C
:1005C6002405F582E43400F583E5822FF582E435CF
:1005D60083F5837401F002005BE4900186F09000DD
:1005E60004E0FFC39408500302068D900003E0C4A4
:1005F60054F02405F582E43400F583E5822FF58274
:10060600E43583F583E06401600302005B90000437
:10061600E05407FCE412082D900169120CA97F0032
:100626007E007D007C40120FFEC004C005C006C0DF
:1006360007900003E025E02426F582E43401F583E3
:10064600E0FCE412082DD003D002D001D00012073E
:100656002E120861900003E0FE25E02426F582E4D0
:100666003401F583EFF0900004E0FFEEC454F0246B
:1006760005F582E43400F583E5822FF582E43583BF
:10068600F583E4F002005B900004E0FF900003E0D5
:10069600C454F02405F582E43400F583E5822FF591
:1006A60082E43583F583E06401600302005BEF5466
:1006B60007FCE412082D900169120CA97F007E0048
:1006C6007D007C40120FFEC004C005C006C0079026
:1006D6000003E025E02425F582E43401F583E0FCFF
:1006E600E412082DD003D002D001D00012072E123A
:1006F6000861900003E0FE25E02425F582E434013C
:10070600F583EFF0900004E0FFEEC454F02405F505
:1007160082E43400F583E5822FF582E43583F583A0
:05072600E4F002005B9D
:10072B000208CDE86480F8E933E83360110460F027
:10073B00ED33EC337009E8FCE9FDEAFEEBFF220434
:10074B0060DED3EB9FEA9EE99DE8C2E78CF0C2F72F
:10075B0095F0400CE8CCF8E9CDF9EACEFAEBCFFBFB
:10076B0012089885D0F05804700320D5B3E80470B4
:10077B00075002B2D50208D792D5EC0460F7E4CC4F
:10078B00C0E0C398F8603B94186008400DD0E0FBC4
:10079B000208AFE4FBFAC9FC8028E830E406E4C9A0
:1007AB00FBE4CAFCE830E305E4C9CACBFCE8540718
:1007BB006010F8C3E913F9EA13FAEB13FBEC13FC23
:1007CB00D8F130F52FC3E49CFCEF9BFFEE9AFEEDC6
:1007DB0099FDD0E0FBEF4E4D4C701222DB0302086B
:1007EB00D4EC2CFCEF33FFEE33FEED33FDED30E7B5
:1007FB00EB0208AFEF2BFFEE3AFEED39FDD0E0FB3D
:10080B0050130BBB00030208D7ED13FDEE13FEEFE5
:08081B0013FFEC13FC0208AF0F
:1008230075F020800E75F010800575F0087D007E50
:10083300007F003392D530D503120C6FEC33401098
:10084300EF33FFEE33FEED33FDEC33FCD5F0ED2259
:0E085300E5F0247EA2D513CC92E7CDCEFF2295
:10086100EDD2E7CD33EC3392D524814006E4FFFE8F
:10087100FDFC22FCE4CFCECDCC24E0501174FF80EE
:10088100EDC3CC13CCCD13CDCE13CECF13CF04708B
:07089100F030D5DE020C6F10
:100FFE00900165120CA9E4FFFE7D807C3F90016597
:10100E00E0F8A3E0F9A3E0FAA3E0FB120A027006EF
:10101E00900165021158900165E0FCA3E0FDA3E08C
:10102E00FEA3E0FF1208E2FBA3E0FCA3E0FDA3E0B9
:10103E00FEA3E0FF1208E2FFB40108E4FFFE7D808C
:10104E007C3F22EF64046029EB64046024EBB4015E
:10105E0030E4FFFEFDFC900169E0F8A3E0F9A3E0A7
:10106E00FAA3E0FB120A0260084006E4FFFEFDFC54
:10107E0022900169120CB5FFFFFFFF90016902116A
:10108E0058E490016DF0A3F0FFFEFDFC900165E0C9
:10109E00F8A3E0F9A3E0FAA3E0FB120A02505F9076
:1010AE000169E0FCA3E0FDA3E0FEA3E0FF120861EE
:1010BE0090016DEEF0A3EFF0FDCCEECCEC12082813
:1010CE00C8ECC8C9EDC9CAEECACBEFCB900169E036
:1010DE00FCA3E0FDA3E0FEA3E0FF12072EE4FBFA63
:1010EE00F9F8120A02708A900165E0FCA3E0FDA3F4
:1010FE00E0FEA3E0FF120A7B900165120CA990019D
:10110E0065E0FCA3E0FDA3E0FEA3E0FF1214549003
:10111E000169E0F8A3E0F9A3E0FAA3E0FB1208FCF2
:10112E00121581900169120CA990016EE030E01742
:10113E00900169E0FCA3E0FDA3E0FEA3E0FF120A2C
:10114E007B900169120CA9900169E0FCA3E0FDA35C
:06115E00E0FEA3E0FF2209
:10089800E9D2E7C933E833F892D5EDD2E7CD33ECA6
:0708A80033FC5002B2D5221F
:1008AF00EC30E7100FBF000C0EBE00080DBD0004AA
:1008BF000BEB6014A2D5EB13FCED92E7FD2274FF56
:1008CF00FCFDFEFF22E480F8A2D574FF13FC7D80AF
:0308DF00E480EFC3
:1008E200ED33EC33601004700FED547F7005740229
:0A08F20092E0227404220422E422A2
:1008FC00EC4D6011E8497017ED33EC3304600DE4F6
:10090C00FCFFFEFD22E933E8330470F80208CD1237
:10091C00089858046009E4CC248150062850090238
:10092C0008D72840030208D4C0E0EB4A7044B980D1
:10093C0006D0E0FB0208C3EF4E701CBD8008EBFF35
:10094C00EAFEE9FD80EBE98DF0A4FEE5F00209E595
:10095C00E9CDF9EAFEEBFFEF89F0A4FCE5F0CE89D6
:10096C00F0A42EFFE435F0CD89F0A42DFEE435F093
:10097C008067EF4E7005BD80D780C3EF8BF0A4ACC1
:10098C00F0EE8BF0A42CFCE435F0F8EF8AF0A42CFC
:10099C00E5F038FCE433CB8DF0A42CFCE5F03BF80F
:1009AC00EE8AF0A42CFCE5F038F8E433CF89F0A4FF
:1009BC002CFCE5F038CF3400CE89F0A42FFFE5F005
:1009CC003EFEE433C98DF0A42EFEE5F039CD8AF05D
:1009DC00A42FFFE5F03EFEE43DFD33D0E0FB5007D5
:1009EC000BBB000F0208D7EC2CFCEF33FFEE33FEF1
:0609FC00ED33FD0208AF1F
:100A020074F8CC6480CCC86480C8F58204604FC39B
:100A1200EB9FF5F0EA9E42F0E99D42F0E89C45F03A
:100A2200603C501DE5825FFFE582D313CB5BCBF4C4
:100A32002B5582FB50280ABA002409B900200880ED
:100A42001DE5825BFBE582D313CF5FCFF4C3132F87
:100A52005582FF50090EBE00050DBD00010CC3EB0F
:100A62009FF5F0EA9E42F0E99D42F0E89C45F06075
:090A720007CC4820E701B3EC2297
:100A7B00ED33EC33600A047003BD8004ECB2E7FC89
:010A8B002248
:1015490033DA929E35B16011377FE5FE39218489FE
:101559003AAEC3FF3C1D955B3D6358473E75FDF0B0
:101569003F3172183F800000C2D50208D70208CD6A
:10157900BD80FA50F30208D4ED33EC330460F17BFB
:101589003B7AAA79B8783F1208FCED33EC3392D54F
:10159900247B5011A2D570DB500BED4480240450FC
:1015A90004A2D580CEEFFBEEFAEDF9ECF812086152
:1015B900EFF582F404FC12082D120732C08290154F
:1015C900497409120B3BED33CC33D0F092D525F099
:0A15D900A2D57001C313CC13FD224C
:101420003E9248DA3ECCCCCD3F2AAAAB4000000029
:101430003F8000003F9837F03FB504F33FD744FCAE
:101440003E3172173EB172173F0515913EDE5BD9F2
:10145000D2008002C200EDD2E7F8CD33EC33047045
:101460000BBD800592D50208D70208CD40FBD314EE
:1014700060F2F5F07C3FEE7A00C39496C8948B40FE
:10148000230AC89469C8941A401A0AC89468C89470
:101490001F40110AC8945AC89425400805F07A00E4
:1014A000CDC2E7CDC0F090016F120CA9EA2323C092
:1014B000E02430F582E43414F583120C99120732DB
:1014C000ECC0E0EDC0E0EEC0E0EFC0E0120C7D90BB
:1014D000016F120C8D12072ED0E0FBD0E0FAD0E0A5
:1014E000F9D0E0B2E7F8120A8F90016F120CA990C0
:1014F00014207403120B2C90016F120C8D1208FC37
:10150000D0E0600F243CF582E43414F583120C998A
:1015100012073290016F120CA9D0E0C3947FFDE452
:101520009400FC1208287B187A727931783F1208EF
:10153000FC90016F120C8D12073230000B7BD97AB0
:091540005B79DE783E1208FC2202
:100A8C000208D7EC5D046005E8590470030208CD38
:100A9C00120898580460F6EC4860F2EC7004FDFE05
:100AAC00FF22C860DB2481C85009C398600250063D
:100ABC000208D49850CAF582E9294B4A7005AB82DA
:100ACC000208C375F0007C1A7880C3EF9BEE9AED98
:100ADC0099400DC3EF9BFFEE9AFEED99FDE842F0B5
:100AEC00DC23ACF0D0E0FFD0E0FED0E0FDAB822008
:100AFC00E7101BEB60BAEC2CFCEF33FFEE33FEED92
:100B0C0033FD0208AFE803F830E705C0F075F000DC
:100B1C00EF2FFFEE33FEED33FD40B830E7C280AA75
:100B2C00C0E0EFFBEEFAEDF9ECF81208FCD0E0F5C2
:100B3C00F0EFFBEEFAEDF9ECF8120C7DA3A3A3A3F6
:100B4C00E8C0E0E9C0E0EAC0E0EBC0E0C0F01208A9
:100B5C00FC120C99A3A3A3A3120732D0F0D0E0FB94
:0D0B6C00D0E0FAD0E0F9D0E0F8D5F0D422C6
:030000000215E303
:0C15E300787FE4F6D8FD75812002162AFE
:100B7900E709F608DFFA8046E709F208DFFA803E5E
:100B890088828C83E709F0A3DFFA8032E309F6084B
:100B9900DFFA8078E309F208DFFA807088828C83B3
:100BA900E309F0A3DFFA806489828A83E0A3F60867
:100BB900DFFA805889828A83E0A3F208DFFA804C41
:100BC90080D280FA80C680D4806980F28033801018
:100BD90080A680EA809A80A880DA80E280CA803381
:100BE90089828A83ECFAE493A3C8C582C8CCC583F9
:100BF900CCF0A3C8C582C8CCC583CCDFE9DEE780C9
:100C09000D89828A83E493A3F608DFF9ECFAA9F047
:100C1900EDFB2289828A83ECFAE0A3C8C582C8CC9D
:100C2900C583CCF0A3C8C582C8CCC583CCDFEADEB6
:100C3900E880DB89828A83E493A3F208DFF980CC18
:100C490088F0EF60010E4E60C388F0ED2402B40411
:100C59000050B9F582EB2402B4040050AF232345B8
:060C69008223900BC97309
:0E0C6F00C3E49FFFE49EFEE49DFDE49CFC2296
:100C7D00E493FC740193FD740293FE740393FF22BD
:0C0C8D00E0F8A3E0F9A3E0FAA3E0FB22EA
:100C9900E493F8740193F9740293FA740393FB22B1
:0C0CA900ECF0A3EDF0A3EEF0A3EFF022BE
:100CB500A8828583F0D083D082120CCC120CCC1282
:100CC5000CCC120CCCE473E493A3C583C5F0C583A7
:100CD500C8C582C8F0A3C583C5F0C583C8C582C889
:010CE50022EC
:0C0CE600A42582F582E5F03583F5832219
:100CF200EF4E6012EF60010EEDBB010B89828A8319
:100D0200F0A3DFFCDEFA2289F05007F709DFFCA925
:0C0D1200F022BBFEFCF309DFFCA9F0227C
:1015EF00020006E493A3F8E493A34003F68001F20C
:1015FF0008DFF48029E493A3F85407240CC8C333FD
:10160F00C4540F4420C8834004F456800146F6DFCB
:10161F00E4800B0102040810204080901781E47EC3
:10162F00019360BCA3FF543F30E509541FFEE493C0
:10163F00A360010ECF54C025E060A840B8E493A387
:10164F00FAE493A3F8E493A3C8C582C8CAC583CAB2
:10165F00F0A3C8C582C8CAC583CADFE9DEE780BE6A
:011785000063
:00000001FF
