:1000060000010002000400080010002000400080EB
:1000160001000200040008001000200040008000DB
:10002600000000000000000000000000001800189A
:1000360000240024004200420042004200420042E6
:10004600004200420042004200420042004200429A
:100056000024002400180018000000000000000022
:10006600000000000000000000000000001800086A
:100076000024000E0042000800420008004200086A
:100086000042000800420008004200080042000842
:10009600002400080018003E0000000000000000D8
:1000A6000000000000000000000000000018003CF6
:1000B600002400420042004200420042004200206A
:1000C60000420020004200100042000800420004E6
:1000D600002400420018007E00000000000000001E
:1000E6000000000000000000000000000018003CB6
:1000F6000024004200420042004200200042001854
:1001060000420020004200400042004000420042FF
:10011600002400220018001C00000000000000005F
:100126000000000000000000000000000018002091
:10013600002400300042002800420024004200242F
:1001460000420022004200220042007E00420020BF
:1001560000240020001800780000000000000000C5
:100166000000000000000000000000000018007EF3
:100176000024000200420002004200020042001A6F
:100186000042002600420040004200400042004279
:10019600002400220018001C0000000000000000DF
:1001A60000000000000000000000000000180038F9
:1001B6000024002400420002004200020042001A0D
:1001C6000042002600420042004200420042004235
:1001D60000240024001800180000000000000000A1
:1001E6000000000000000000000000000018007E73
:1001F60000240022004200220042001000420010AB
:1002060000420008004200080042000800420008C0
:10021600002400080018000800000000000000008C
:100226000000000000000000000000000018003C74
:1002360000240042004200420042004200420024E4
:1002460000420018004200240042004200420042E0
:10025600002400420018003C0000000000000000DE
:100266000000000000000000000000000018001858
:1002760000240024004200420042004200420042A4
:100286000042006400420058004200400042004024
:10029600002400240018001C0000000000000000DC
:1002A6000000000000000000003C00F00066009C1A
:1002B6000043008200000000000000000000000073
:1002C6000000000000000000003000180060000878
:1002D60000C0000700000000000000000000000051
:1002E6000000000000000000000000000000000008
:1002F60000000000000000010020000900100011AD
:100306000010001100100011001000110010001163
:1003160000100010001000100020000800C00007A8
:1003260000000000006000000050000000C800400F
:10033600004E0021004A0012004A000C004A000C40
:10034600004A0012004E002100C800400050000084
:100356000060000000000000000000000000000037
:10036600000000000000000000840002008C000273
:100376000094000200A4000200C4000200840002EF
:100386000084000200C4000200A4000200940002DF
:10039600008C000200840002000000000000000043
:1003A600000000000000000000410010006100187D
:1003B60000510014004900120045001100C300104E
:1003C60000C300100045001100490012005100143E
:1003D600006100180041001000000000000000004D
:1003E60000000000000000000008008200180086DF
:1003F6000028008A00480092008800A2000800C376
:10040600000800C3008800A2004800920028008A65
:1004160000180086000800820000000000000000AE
:1004260000000000007F001C004200220002004184
:1004360000120041001E0041001200410002005D52
:1004460000420022007F003C000000400000000047
:100456000000000000000000000000000000000096
:100466000080000000C0000100A00002009000040F
:100476000080000000800000008000000080000076
:1004860000000000009100090051000A0051000A16
:100496000051000A0051000A004A000A008400794F
:1004A6000080000000800000008000000080000046
:1004B6000090000400A0000200C0000100800000BF
:1004C600009100090051000A0051000A0051000A7B
:1004D6000051000A0051000A004A000A008400790F
:1004E6000000000000000000003F007E0042008483
:1004F600008200840082008400420084003E007C6A
:1005060000220004004200040042000400420004ED
:1005160000C7000F000000000000000000000000FF
:100526000000000000E7000000420000004200005A
:10053600004200080042000400420002004200019E
:1005460000C20000007C000000200077001000912F
:1005560000080096000400940002007700000000E6
:020B2B008F0930
:100B2D00E4F50A75F040E509A42428F582E5F034D2
:100B3D0000F58375F004E50A120807740193F4FFBC
:100B4D0075F040E509A42426F582E5F03400F5831F
:100B5D0075F004E50A120807740193F4FDE50A2502
:100B6D00E02406F582E43400F583E493FBE50A25E1
:100B7D00E02407F582E43400F583E493F550120A7E
:0A0B8D00BD050AE50AC39410409963
:010B9700223B
:100ABD00E4FEEFC4131313540124FF92B4EF25E0A9
:100ACD00FFC2B6D2B60EBE08E9E4FEEDC413131391
:100ADD00540124FF92B4ED25E0FDC2B6D2B60EBE90
:100AED0008E9E4FEEBC4131313540124FF92B4EB95
:100AFD0025E0FBC2B6D2B60EBE08E9E4FEE550C451
:100B0D00131313540124FF92B4E55025E0F550C2A0
:0D0B1D00B6D2B60EBE08E6C2B5D2B5C2B55E
:010B2A0022A8
:040BD8007F017E001B
:100BDC00EF1FAA0670011E4A600BE4FDEDC3940DD5
:050BEC0050EE0D80F742
:010BF10022E1
:090C2300D288D2A8D2AFD2B222CD
:03000300020839B7
:10083900C0E0C083C082C0D075D000C000C002C073
:0708490004C005C006C00752
:10085000755D007F467E00120BDC30B20302091B7F
:100860009003E820B218D3E5829400E58394004019
:100870000D120BD8E582158270E9158380E520B250
:100880000302091B9001F430B218D3E5829400E50D
:10089000839400400D120BD8E582158270E9158310
:1008A00080E5E4FC75080090003C20B218D3E58296
:1008B0009400E5839400400D120BD8E582158270F8
:1008C000E9158380E59001F430B223D3E5829400EA
:1008D000E58394004018120BD8055DE582158270FF
:1008E000021583E55DD3941E40DED2A8802D745E90
:1008F0002CF8C000E6C313D000F6E55DC3940840B1
:1009000008745E2CF8E64480F6755D000508E5087D
:0B091000C3940840920CEC6404708952
:10091B00D007D006D005D004D002D000D0D0D082E2
:05092B00D083D0E03292
:100B9800120C23AF60EF24F8602424F0601024BA0C
:100BA800601424527020758001120A1180E5758046
:100BB80003120C1880DD758007120BF280D5758042
:100BC8000F120BFF80CDE4F5807F0A120B2B80C338
:100A1100AF60BF460122EF1208130A97070A6B085D
:100A21000A9B090A5F0C0AA70D0A9F150A5B160AA1
:100A310063180AA3190A6F1C0A8F400A77420A93A6
:100A4100430A8B440A83450A87470A7F4A0A7B5235
:100A51000A735A0A675E00000AAFE4FF804A7F0109
:100A610080467F0280427F03803E7F04803A7F057B
:100A710080367F0680327F07802E7F08802A7F099B
:100A810080267F0B80227F0C801E7F0D801A7F0EB7
:100A910080167F0F80127F10800E7F11800A7F12D7
:100AA10080067F1380027F14120B2B020A11E4F5DA
:0C0AB10050FB7DFF7FFF120ABD020A11FE
:0B0C1800AF60BF46012212093080F5DA
:0D0BF200AF60BF4601227F08120B2B80F37D
:0D0BFF00AF60BF4601227F09120B2B80F36F
:100566000001000200040008001000200040008086
:100576000100020004000800100020004000800076
:100586000000000000000000000000000000000065
:100596000000000000000000000000000000000055
:1005A60010042002F80F88088808F80F88088808C1
:1005B600F80F80008000FE3F8000800000000000F1
:1005C6000002080208020802F81F080008000800D6
:1005D600F8070804080408040404020400000000E4
:1005E6000800880F8808BE08880888089C08AC0898
:1005F6008A0888088808482848282830000000000B
:10060600F83F08020801C81F4810C81F4810C81F35
:100616000802481248222422040282030000000035
:100626000000C01F5E124812C81F48125E12C81F83
:1006360008020802D81F06020002E03F0000000080
:100646000000FC07100410021002100F10085004DE
:100656005004880208018402620C18300000000071
:1006660080000001FC3F04008400041104121412EF
:1006760024104408440804040402F23F0000000069
:100686000000F83F082108210821F83F0821082129
:10069600F83F082108210421042102380000000047
:1006A6000000000000000000000000000000000044
:1006B6000000000000000000000000000000000034
:1006C600FF0586FF05A6FF05C6FF05E6FF0606FF32
:0E06D6000626FF0646FF0666FF0686FF06A6FE
:10093000780F7C007D007BFF7A0579667E007F2042
:100940001207B4782F7C007D007BFF7A0679C67E83
:10095000007F1E1207B4E560B4460122750D0075D4
:100960000E14E4F509F50AAF0AEF25E0240FF8E6C6
:10097000FCEF25E02410F8E6F550E50A250CFFE52C
:1009800009350BFEEF25E0FFEE33FEAB2FE5312FEF
:10099000F9E5303EFA9000011207DAF4FFC007E5EE
:1009A0000A250CFFE509350BFEEF25E0FFEE33AA23
:1009B00030A9318F82F5831207DAF4FDAB04D0073A
:1009C000120ABD050AE50A70020509C39410E5097B
:1009D000648094804091E4F550FB7DFF7FFF120A14
:1009E000BDE50E150E7002150DD3E50E9400E50D54
:1009F000648094804003020962050CE50C700205D6
:100A00000B6482450B6003020956F50BF50C0209D5
:010A1000568F
:03000000020C0CE3
:0C0C0C00787FE4F6D8FD758163020B9838
:1006E400E709F608DFFA8046E709F208DFFA803EF8
:1006F40088828C83E709F0A3DFFA8032E309F608E5
:10070400DFFA8078E309F208DFFA807088828C834C
:10071400E309F0A3DFFA806489828A83E0A3F60800
:10072400DFFA805889828A83E0A3F208DFFA804CDA
:1007340080D280FA80C680D4806980F280338010B1
:1007440080A680EA809A80A880DA80E280CA80331A
:1007540089828A83ECFAE493A3C8C582C8CCC58392
:10076400CCF0A3C8C582C8CCC583CCDFE9DEE78062
:100774000D89828A83E493A3F608DFF9ECFAA9F0E1
:10078400EDFB2289828A83ECFAE0A3C8C582C8CC37
:10079400C583CCF0A3C8C582C8CCC583CCDFEADE50
:1007A400E880DB89828A83E493A3F208DFF980CCB2
:1007B40088F0EF60010E4E60C388F0ED2402B404AB
:1007C4000050B9F582EB2402B4040050AF23234552
:0607D4008223900734733C
:1007DA00BB010CE58229F582E5833AF583E02250D4
:1007EA0006E92582F8E622BBFE06E92582F8E2221E
:0D07FA00E58229F582E5833AF583E4932238
:0C080700A42582F582E5F03583F58322FC
:10081300D083D082F8E4937012740193700DA3A374
:1008230093F8740193F5828883E473740293686088
:06083300EFA3A3A380DF88
:00000001FF
