:03000000020ADF12
:0C0ADF00787FE4F6D8FD75811E020960E6
:100800000000000000000000380044008200820068
:1008100082008200820082008200440038000000D2
:10082000000000000000000010001C00100010007C
:100830001000100010001000100010007C000000DC
:1008400000000000000000003C00420042004200A6
:100850002000200010000800040042007E0000007C
:1008600000000000000000003C00420042002000A8
:100870001800200040004000420042003C00000000
:1008800000000000000020002000300028002400AC
:100890002400220022007C0020002000F80000003C
:1008A00000000000000000007E00020002000200C4
:1008B0003A00460040004000420042003C00000078
:1008C0000000000000000000780044000200020068
:1008D0003A00460082008200820044003800000096
:1008E0000000000000000000FE0042002200200086
:1008F00010001000080008000800080008000000B0
:100900000000000000000000380044008200820067
:100910004400380044008200820044003800000097
:100920000000000000000000380044008200820047
:100930008200C400B8008000800044003C00000039
:1009400000010002000400080010002000400080A8
:100950000100020004000800100020004000800098
:10096000751700751810E4F51485171985181AD332
:10097000E51A9400E519648094805003020A13E498
:10098000F515F516E51625E0FDE51533FC75F020A7
:10099000E514A42401F582E5F03408F583E5822D01
:1009A000F582E5833CF583E493F4FA75F020E514D1
:1009B000A42400F582E5F03408F583E5822DF58264
:1009C000E5833CF583E493F4FDE51625E0FFE515AA
:1009D00033FE74402FF58274093EF583E493FB7473
:1009E000412FF58274093EF583E493F51EAF0212A0
:1009F0000A2D0516E51670020515C39410E5156459
:100A00008094805003020984E51A151A70021519A2
:100A100002096FE4F51EFB7DFF7FFF120A2D05140E
:0D0A2000E514D39409500302096902096628
:100A2D00E4FEEED39417401BEE24E8FCE51EA8046B
:100A3D00088002C333D8FC30E705D2B4020ACDC218
:100A4D00B4807DEED3940F40047C0180027C00EED7
:100A5D00C3941850047A0180027A00EA5C6019EEA2
:100A6D0024F0FCEBA804088002C333D8FC30E70463
:100A7D00D2B4804CC2B48048EED3940740047C01BC
:100A8D0080027C00EEC3941050047A0180027A003B
:100A9D00EA5C6019EE24F8FCEDA804088002C3336B
:100AAD00D8FC30E704D2B48017C2B48013EFA80687
:100ABD00088002C333D8FC30E704D2B48002C2B43C
:100ACD00C2B6D2B60EEE64206003020A2FC2B5D2B2
:010ADD00B563
:010ADE0022F5
:00000001FF
