:10148B000000000000000000000000000000000051
:10149B000000000000000000000000000000000041
:1014AB0010042002F80F88088808F80F88088808AD
:1014BB00F80F80008000FE3F8000800000000000DD
:1014CB000002080208020802F81F080008000800C2
:1014DB00F8070804080408040404020400000000D0
:1014EB000800880F8808BE08880888089C08AC0884
:1014FB008A088808880848284828283000000000F7
:10150B00F83F08020801C81F4810C81F4810C81F21
:10151B000802481248222422040282030000000021
:10152B000000C01F5E124812C81F48125E12C81F6F
:10153B0008020802D81F06020002E03F000000006C
:10154B000000FC07100410021002100F10085004CA
:10155B005004880208018402620C1830000000005D
:10156B0080000001FC3F04008400041104121412DB
:10157B0024104408440804040402F23F0000000055
:10158B000000F83F082108210821F83F0821082115
:10159B00F83F082108210421042102380000000033
:1015AB000000000000000000000000000000000030
:1015BB000000000000000000000000000000000020
:1015CB00FF148BFF14ABFF14CBFF14EBFF150BFFBA
:0E15DB00152BFF154BFF156BFF158BFF15AB86
:1019AE00E4900006F0A3F078087C007D017BFF7ABE
:1019BE001579CBFE7F1E120C9D900182E0B446017C
:1019CE0022900004E4F0A37414F0E4900002F0A35B
:1019DE00F0900002E0FEA3E0FFC39410EE6480944A
:1019EE00804003021A72900006E0FCA3E0FDEF2D8A
:1019FE00FFEE3CFEEF25E0FDEE33FCA3E0FBA3E0A3
:101A0E00FAA3E02DF9EA3CFA900001120CC3F4FFA0
:101A1E00C007900008A3E0FAA3E0F98D828C831230
:101A2E000CC3F4FD900003E025E0FF900002E033CC
:101A3E00FE74C52FF582740D3EF583E493FB74C6D8
:101A4E002FF582740D3EF583E493900148F0D00794
:101A5E00121D18900003E004F07006900002E004DE
:101A6E00F00219DFE4900148F0FB7DFF7FFF121DAD
:101A7E0018900005E024FFF0900004E034FFF0D34E
:101A8E00A3E09400900004E0648094804003021967
:101A9E00D8900007E004F07006900006E004F09085
:101AAE000006E07004A3E0648260030219C7900090
:071ABE0006F0A3F00219C7B6
:100DC500000100020004000800100020004000801F
:100DD500010002000400080010002000400080000F
:100DE50000000000000000000000000000180018CE
:100DF500002400240042004200420042004200421A
:100E050000420042004200420042004200420042CD
:100E15000024002400180018000000000000000055
:100E2500000000000000000000000000001800089D
:100E35000024000E0042000800420008004200089D
:100E45000042000800420008004200080042000875
:100E5500002400080018003E00000000000000000B
:100E65000000000000000000000000000018003C29
:100E7500002400420042004200420042004200209D
:100E85000042002000420010004200080042000419
:100E9500002400420018007E000000000000000051
:100EA5000000000000000000000000000018003CE9
:100EB5000024004200420042004200200042001887
:100EC5000042002000420040004200400042004233
:100ED500002400220018001C000000000000000093
:100EE50000000000000000000000000000180020C5
:100EF5000024003000420028004200240042002463
:100F050000420022004200220042007E00420020F2
:100F150000240020001800780000000000000000F8
:100F25000000000000000000000000000018007E26
:100F35000024000200420002004200020042001AA2
:100F450000420026004200400042004000420042AC
:100F5500002400220018001C000000000000000012
:100F6500000000000000000000000000001800382C
:100F75000024002400420002004200020042001A40
:100F85000042002600420042004200420042004268
:100F950000240024001800180000000000000000D4
:100FA5000000000000000000000000000018007EA6
:100FB50000240022004200220042001000420010DE
:100FC50000420008004200080042000800420008F4
:100FD50000240008001800080000000000000000C0
:100FE5000000000000000000000000000018003CA8
:100FF5000024004200420042004200420042002418
:101005000042001800420024004200420042004213
:10101500002400420018003C000000000000000011
:10102500000000000000000000000000001800188B
:1010350000240024004200420042004200420042D7
:101045000042006400420058004200400042004057
:10105500002400240018001C00000000000000000F
:101065000000000000000000003C00F00066009C4D
:1010750000430082000000000000000000000000A6
:1010850000000000000000000030001800600008AB
:1010950000C0000700000000000000000000000084
:1010A500000000000000000000000000000000003B
:1010B50000000000000000010020000900100011E0
:1010C5000010001100100011001000110010001197
:1010D50000100010001000100020000800C00007DC
:1010E50000000000006000000050000000C8004043
:1010F500004E0021004A0012004A000C004A000C74
:10110500004A0012004E002100C8004000500000B7
:10111500006000000000000000000000000000006A
:10112500000000000000000000840002008C0002A6
:101135000094000200A4000200C400020084000222
:101145000084000200C4000200A400020094000212
:10115500008C000200840002000000000000000076
:1011650000000000000000000041001000610018B0
:1011750000510014004900120045001100C3001081
:1011850000C3001000450011004900120051001471
:101195000061001800410010000000000000000080
:1011A5000000000000000000000800820018008612
:1011B5000028008A00480092008800A2000800C3A9
:1011C500000800C3008800A2004800920028008A99
:1011D50000180086000800820000000000000000E2
:1011E50000000000007F001C0042002200020041B8
:1011F50000120041001E0041001200410002005D86
:1012050000420022007F003C00000040000000007A
:1012150000000000000000000000000000000000C9
:101225000080000000C0000100A000020090000442
:1012350000800000008000000080000000800000A9
:1012450000000000009100090051000A0051000A49
:101255000051000A0051000A004A000A0084007982
:101265000080000000800000008000000080000079
:101275000090000400A0000200C0000100800000F2
:10128500009100090051000A0051000A0051000AAE
:101295000051000A0051000A004A000A0084007942
:1012A5000000000000000000003F007E00420084B6
:1012B500008200840082008400420084003E007C9D
:1012C5000022000400420004004200040042000421
:1012D50000C7000F00000000000000000000000033
:1012E5000000000000E7000000420000004200008E
:1012F50000420008004200040042000200420001D2
:1013050000C20000007C0000002000770010009162
:101315000008009600040094000200770000000019
:051C9C00900002EFF0D2
:101CA100E4A3F0900003E0FEC39410506990000299
:101CB100E0FD75F040A424E7F582E5F0340DF583ED
:101CC10075F004EE120D67740193F4FF75F040EDA9
:101CD100A424E5F582E5F0340DF58375F004EE12E8
:101CE1000D67740193F4FD900003E025E024C5F530
:101CF10082E4340DF583E493FBEE25E024C6F582FE
:101D0100E4340DF583E493900148F0121D1890001E
:061D110003E004F0808DE8
:011D170022A9
:101D1800E4FEEFC4131313540124FF92B4EF25E03B
:101D2800FFC2B6D2B60EEEB408E8E4FEEDC4131353
:101D380013540124FF92B4ED25E0FDC2B6D2B60ECD
:101D4800EEB408E8E4FEEBC4131313540124FF9225
:101D5800B4EB25E0FBC2B6D2B60EEEB408E8E4FE5A
:101D6800900148E0FFC4131313540124FF92B4EF09
:101D780025E0F0C2B6D2B60EEEB408E4C2B5D2B5CC
:021D8800C2B5E2
:011D8A002236
:041E3D0041018601D8
:041E66007F017E007A
:101E6A00EF1FAA0670011E4A600BE4FDEDC3940D34
:051E7A0050EE0D80F7A1
:011E7F002240
:091E8000D288D2A8D2AFD2B2225E
:030003000215E9FA
:1015E900C0E0C083C082C0D075D000C002C003C0B3
:0715F90004C005C006C00795
:1016000090017FE4F07F46FE121E6A30B20302179B
:10161000309000007403F0A374E8F020B220D3905F
:101620000001E09400900000E094004011121E665A
:10163000A3E024FFF0900000E034FFF080DD20B252
:101640000302171D9000007401F0A374F4F030B28F
:1016500020D3900001E09400900000E0940040113D
:10166000121E66A3E024FFF0900000E034FFF0803B
:10167000DDE4FCE4FB900000E4F0A3743CF020B255
:1016800020D3900001E09400900000E0940040110D
:10169000121E66A3E024FFF0900000E034FFF0800B
:1016A000DD9000007401F0A374F4F030B233D390F5
:1016B0000001E09400900000E094004024121E66B7
:1016C00090017FE004F0900001E024FFF090000022
:1016D000E034FFF090017FE0D3941E40CED2A8808A
:1016E0004F74802CF582E43401F583E0C313F0904D
:1016F000017FE0C39408400E74802CF582E434012D
:10170000F583E04480F090017FE4F00BEB64086027
:10171000030216750CEC64046003021673900183D7
:10172000E0F4FF900182E0B507069001867401F0B5
:10173000D007D006D005D004D003D002D0D0D082BC
:05174000D083D0E0326F
:101DFB00121E80900182E0FF24F8602424F0601012
:101E0B0024BA601424527020759001121AC580E315
:101E1B007590031219AE80DB75900712000680D304
:101E2B0075900F121D8B80CBE4F5907F0A121C9CD2
:021E3B0080C164
:101AC500900182E0FFB4460122EF120D731B4E0711
:101AD5001B22081B52091B160C1B5E0D1B56151BE2
:101AE50012161B1A181B5A191B261C1B46401B2EA7
:101AF500421B4A431B42441B3A451B3E471B364A81
:101B05001B32521B2A5A1B1E5E00001B66E4FF8017
:101B15004A7F0180467F0280427F03803E7F0480AA
:101B25003A7F0580367F0680327F07802E7F0880CA
:101B35002A7F0980267F0B80227F0C801E7F0D80E7
:101B45001A7F0E80167F0F80127F10800E7F118006
:101B55000A7F1280067F1380027F14121C9C021AD2
:101B6500C5E4900148F0FB7DFF7FFF121D18021AA6
:011B7500C5AA
:101D8B00900182E0B4460122E4900002F090000240
:101D9B00E0C3941050EAE0FE75F002A42454F582DF
:101DAB00E5F03401F583E0F4FF75F002EEA4245363
:101DBB00F582E5F03401F583E0F4FD900002E07567
:101DCB00F002A424C5F582E5F0340DF583E493FB12
:101DDB0075F002EEA424C6F582E5F0340DF583E42C
:101DEB0093900148F0121D18900002E004F0809DC2
:101745000000000000000000000000000000000094
:101755000000000000000000000000000000000084
:101765000000000000000000000000000000000074
:101775000000000000000000000000000000000064
:101785000000000000000000000000000000000054
:101795000000000000000000000000000000000044
:1017A5000000000000000000000000000000000034
:1017B5000000000000000000000000000000000024
:1017C5000000000000000000000000000000000014
:1017D5000000000000000000000000000000000004
:1017E50000000000000000000000000000000000F4
:1017F50000000000000000000000000000000000E4
:1018050000000000000000000000000000000000D3
:1018150000000000000000000000000000000000C3
:1018250000000000000000000000000000000000B3
:1018350000000000000000000000000000000000A3
:101845000100000000000000000000000000000092
:101855000000000000000000000000000000000083
:101865000000000000000000000000000000000073
:101875000000000000000000000000000000000063
:101E410060200153000000000000000000000000BD
:101E51000000000000000000000000000000000081
:041E6100000000007D
:10000600E4900002F0900004F078057C007D017B0E
:10001600FF7A1779457E01FF120C9D78057C017DDC
:10002600017BFF7A1879457E007F20120C9D78258A
:100036007C017D017BFF7A1879657E007F20120C9A
:100046009D900182E0B4460122E4900002F0900007
:1000560002E0FE25E02406F582E43401F583E0F4AF
:10006600FFEE25E02405F582E43401F583E0F4FD96
:10007600900002E075F002A424C5F582E5F0340D87
:10008600F583E493FB75F002EEA424C6F582E5F051
:10009600340DF583E493900148F0121D1890000288
:1000A600E0FE25E02426F582E43401F583E0F4FF42
:1000B600EE25E02425F582E43401F583E0F4FD9095
:1000C6000002E075F002A424C5F582E5F0340DF5D2
:1000D60083E493FB75F002EEA424C6F582E5F034C2
:1000E6000DF583E493900148F0121D18900002E08C
:1000F60004F0E0C394105003020054900186E064BB
:10010600016003020047900182E0FFF5A0EF24F3AF
:10011600700302071024F770030205EE24FE700335
:1001260002030A14700302074624FD70030204CF7B
:1001360024CA70030203EC24F8700302022B245233
:100146006003020047E4900186F0FE7F20FD7B01FC
:100156007A017905120D99E4900148F0FB7DFF7F45
:10016600FF121D18900003E070037410F090000356
:10017600E014F0E0FFC394084054EF5407FCE41287
:100186000881900149120D2A7F007E007D007C4087
:10019600121325C004C005C006C007900004E02560
:1001A600E02406F582E43401F583E0FCE4120881DC
:1001B600D003D002D001D0001207861208B59000F5
:1001C60004E025E02406F582E434010204C8900028
:1001D60003E05407FCE4120881900149120D2A7FBE
:1001E600007E007D007C40121325C004C005C006B9
:1001F600C007900004E025E02405F582E43401F50B
:1002060083E0FCE4120881D003D002D001D00012B2
:1002160007861208B5900004E025E02405F582E47F
:1002260034010204C8E4900186F0FE7F20FD7B01C4
:100236007A017905120D99E4900148F0FB7DFF7F64
:10024600FF121D18900003E004F0E0B41002E4F081
:10025600900003E0FFC394084053EF5407FCE412F8
:100266000881900149120D2A7F007E007D007C40A6
:10027600121325C004C005C006C007900004E0257F
:10028600E02406F582E43401F583E0FCE4120881FB
:10029600D003D002D001D0001207861208B5900014
:1002A60004E025E02406F582E4340180549000033E
:1002B600E05407FCE4120881900149120D2A7F00E0
:1002C6007E007D007C40121325C004C005C006C018
:1002D60007900004E025E02405F582E43401F58367
:1002E600E0FCE4120881D003D002D001D00012074E
:1002F600861208B5900004E025E02405F582E43472
:10030600010204C8E4900186F0FE7F20FD7B017A9D
:10031600017905120D99E4900148F0FB7DFF7FFFFE
:10032600121D18900004E070037410F0900004E0B1
:1003360014F0900003E0FFC394084053EF5407FC09
:10034600E4120881900149120D2A7F007E007D008B
:100356007C40121325C004C005C006C007900004E7
:10036600E025E02406F582E43401F583E0FCE4129E
:100376000881D003D002D001D0001207861208B53A
:10038600900004E025E02406F582E43401805490D0
:100396000003E05407FCE4120881900149120D2A7B
:1003A6007F007E007D007C40121325C004C005C07E
:1003B60006C007900004E025E02405F582E4340138
:1003C600F583E0FCE4120881D003D002D001D0000E
:1003D6001207861208B5900004E025E02405F58290
:1003E600E434010204C8E4900186F0FE7F20FD7B20
:1003F600017A017905120D99E4900148F0FB7DFF21
:100406007FFF121D18900004E004F0E0B41002E42F
:10041600F0900003E0FFC394084053EF5407FCE458
:10042600120881900149120D2A7F007E007D007C12
:1004360040121325C004C005C006C007900004E0A2
:1004460025E02406F582E43401F583E0FCE4120895
:1004560081D003D002D001D0001207861208B590D1
:100466000004E025E02406F582E43401805490007F
:1004760003E05407FCE4120881900149120D2A7F1B
:10048600007E007D007C40121325C004C005C00616
:10049600C007900004E025E02405F582E43401F568
:1004A60083E0FCE4120881D003D002D001D0001210
:1004B60007861208B5900004E025E02405F582E4DD
:1004C6003401F583EFF0020047E4900186F09000D6
:1004D60003E0FFC394084075A3E0C454F02405F577
:1004E60082E43400F583E5822FF582E43583F583D3
:1004F600E06003020047900003E05407FCE41208A2
:1005060081900149120D2A7F007E007D007C4012F9
:100516001325C004C005C006C007900004E025E00E
:100526002426F582E43401F583E0FCE4120881D048
:1005360003D002D001D0001207861208B59000043D
:10054600E0FE25E02426F582E43401807590000360
:10055600E0FFA3E0C454F02405F582E43400F583FB
:10056600E5822FF582E43583F583E06003020047D8
:10057600EF5407FCE4120881900149120D2A7F000E
:100586007E007D007C40121325C004C005C006C055
:1005960007900004E025E02425F582E43401F58384
:1005A600E0FCE4120881D003D002D001D00012078B
:1005B600861208B5900004E0FE25E02425F582E4C5
:1005C6003401F583EFF0900003E0FFEEC454F0240D
:1005D60005F582E43400F583E5822FF582E4358360
:1005E600F5837401F0020047E4900186F090000361
:1005F600E0FFC394084077A3E0C454F02405F582D5
:10060600E43400F583E5822FF582E43583F583E053
:1006160064016003020047900003E05407FCE41203
:100626000881900149120D2A7F007E007D007C40E2
:10063600121325C004C005C006C007900004E025BB
:10064600E02426F582E43401F583E0FCE412088117
:10065600D003D002D001D0001207821208B5900054
:1006660004E0FE25E02426F582E43401807790003C
:1006760003E0FFA3E0C454F02405F582E43400F55A
:1006860083E5822FF582E43583F583E06401600318
:10069600020047EF5407FCE4120881900149120D4D
:1006A6002A7F007E007D007C40121325C004C00511
:1006B600C006C007900004E025E02425F582E43456
:1006C60001F583E0FCE4120881D003D002D001D00A
:1006D600001207821208B5900004E0FE25E02425EA
:1006E600F582E43401F583EFF0900003E0FFEEC4F9
:1006F60054F02405F582E43400F583E5822FF58273
:10070600E43583F583E4F0020047E4900186F09037
:100716000002F0900002E0C394204003020047E08C
:10072600FF2425F582E43401F583E0FE74532FF5AA
:1007360082E43401F583EEF0900002E004F080D309
:10074600E4900186F0900002F0900002E0FFC3946E
:1007560020501474252FF582E43401F583E4F090DB
:100766000002E004F080E27E017F007D007B017ADA
:09077600007905120D99020047FB
:10077F00020921E86480F8E933E83360110460F07E
:10078F00ED33EC337009E8FCE9FDEAFEEBFF2204E0
:10079F0060DED3EB9FEA9EE99DE8C2E78CF0C2F7DB
:1007AF0095F0400CE8CCF8E9CDF9EACEFAEBCFFBA7
:1007BF001208EC85D0F05804700320D5B3E804700C
:1007CF00075002B2D502092B92D5EC0460F7E4CCA6
:1007DF00C0E0C398F8603B94186008400DD0E0FB70
:1007EF00020903E4FBFAC9FC8028E830E406E4C9F7
:1007FF00FBE4CAFCE830E305E4C9CACBFCE85407C4
:10080F006010F8C3E913F9EA13FAEB13FBEC13FCCE
:10081F00D8F130F52FC3E49CFCEF9BFFEE9AFEED71
:10082F0099FDD0E0FBEF4E4D4C701222DB03020915
:10083F0028EC2CFCEF33FFEE33FEED33FDED30E70C
:10084F00EB020903EF2BFFEE3AFEED39FDD0E0FB93
:10085F0050130BBB000302092BED13FDEE13FEEF3C
:08086F0013FFEC13FC02090366
:1008770075F020800E75F010800575F0087D007EFC
:10088700007F003392D530D503120CF0EC334010C3
:10089700EF33FFEE33FEED33FDEC33FCD5F0ED2205
:0E08A700E5F0247EA2D513CC92E7CDCEFF2241
:1008B500EDD2E7CD33EC3392D524814006E4FFFE3B
:1008C500FDFC22FCE4CFCECDCC24E0501174FF809A
:1008D500EDC3CC13CCCD13CDCE13CECF13CF047037
:0708E500F030D5DE020CF03B
:10132500900145120D2AE4FFFE7D807C3F9001452A
:10133500E0F8A3E0F9A3E0FAA3E0FB120A56700671
:1013450090014502147F900145E0FCA3E0FDA3E078
:10135500FEA3E0FF120936FBA3E0FCA3E0FDA3E03A
:10136500FEA3E0FF120936FFB40108E4FFFE7D800D
:101375007C3F22EF64046029EB64046024EBB40134
:1013850030E4FFFEFDFC900149E0F8A3E0F9A3E09D
:10139500FAA3E0FB120A5660084006E4FFFEFDFCD6
:1013A50022900149120D36FFFFFFFF9001490214FB
:1013B5007FE490014DF0A3F0FFFEFDFC900145E0B8
:1013C500F8A3E0F9A3E0FAA3E0FB120A56505F90F8
:1013D5000149E0FCA3E0FDA3E0FEA3E0FF1208B590
:1013E50090014DEEF0A3EFF0FDCCEECCEC12087CB5
:1013F500C8ECC8C9EDC9CAEECACBEFCB900149E02C
:10140500FCA3E0FDA3E0FEA3E0FF120782E4FBFAE4
:10141500F9F8120A56708A900145E0FCA3E0FDA395
:10142500E0FEA3E0FF120ACF900145120D2A9001BC
:1014350045E0FCA3E0FDA3E0FEA3E0FF1218B99090
:101445000149E0F8A3E0F9A3E0FAA3E0FB12095093
:10145500121BAE900149120D2A90014EE030E017A3
:10146500900149E0FCA3E0FDA3E0FEA3E0FF120A22
:10147500CF900149120D2A900149E0FCA3E0FDA39C
:06148500E0FEA3E0FF22DF
:1008EC00E9D2E7C933E833F892D5EDD2E7CD33EC52
:0708FC0033FC5002B2D522CB
:10090300EC30E7100FBF000C0EBE00080DBD000455
:100913000BEB6014A2D5EB13FCED92E7FD2274FF01
:10092300FCFDFEFF22E480F8A2D574FF13FC7D805A
:03093300E480EF6E
:10093600ED33EC33601004700FED547F70057402D4
:0A09460092E0227404220422E4224D
:10095000EC4D6011E8497017ED33EC3304600DE4A1
:10096000FCFFFEFD22E933E8330470F8020921128E
:1009700008EC58046009E4CC248150062850090290
:10098000092B284003020928C0E0EB4A7044B980D3
:1009900006D0E0FB020917EF4E701CBD8008EBFF8C
:1009A000EAFEE9FD80EBE98DF0A4FEE5F0020A39EC
:1009B000E9CDF9EAFEEBFFEF89F0A4FCE5F0CE8982
:1009C000F0A42EFFE435F0CD89F0A42DFEE435F03F
:1009D0008067EF4E7005BD80D780C3EF8BF0A4AC6D
:1009E000F0EE8BF0A42CFCE435F0F8EF8AF0A42CA8
:1009F000E5F038FCE433CB8DF0A42CFCE5F03BF8BB
:100A0000EE8AF0A42CFCE5F038F8E433CF89F0A4AA
:100A10002CFCE5F038CF3400CE89F0A42FFFE5F0B0
:100A20003EFEE433C98DF0A42EFEE5F039CD8AF008
:100A3000A42FFFE5F03EFEE43DFD33D0E0FB500780
:100A40000BBB000F02092BEC2CFCEF33FFEE33FE47
:060A5000ED33FD02090375
:100A560074F8CC6480CCC86480C8F58204604FC347
:100A6600EB9FF5F0EA9E42F0E99D42F0E89C45F0E6
:100A7600603C501DE5825FFFE582D313CB5BCBF470
:100A86002B5582FB50280ABA002409B90020088099
:100A96001DE5825BFBE582D313CF5FCFF4C3132F33
:100AA6005582FF50090EBE00050DBD00010CC3EBBB
:100AB6009FF5F0EA9E42F0E99D42F0E89C45F06021
:090AC60007CC4820E701B3EC2243
:100ACF00ED33EC33600A047003BD8004ECB2E7FC35
:010ADF0022F4
:101B760033DA929E35B16011377FE5FE39218489CB
:101B86003AAEC3FF3C1D955B3D6358473E75FDF07D
:101B96003F3172183F800000C2D502092B0209218D
:101BA600BD80FA50F3020928ED33EC330460F17B73
:101BB6003B7AAA79B8783F120950ED33EC3392D5C7
:101BC600247B5011A2D570DB500BED4480240450C9
:101BD60004A2D580CEEFFBEEFAEDF9ECF81208B5CB
:101BE600EFF582F404FC120881120786C082901B6E
:101BF600767409120B8FED33CC33D0F092D525F0E5
:0A1C0600A2D57001C313CC13FD2218
:101885003E9248DA3ECCCCCD3F2AAAAB40000000C0
:101895003F8000003F9837F03FB504F33FD744FC45
:1018A5003E3172173EB172173F0515913EDE5BD989
:1018B500D2008002C200EDD2E7F8CD33EC330470DC
:1018C5000BBD800592D502092B02092140FBD314DB
:1018D50060F2F5F07C3FEE7A00C39496C8948B4095
:1018E500230AC89469C8941A401A0AC89468C89407
:1018F5001F40110AC8945AC89425400805F07A007B
:10190500CDC2E7CDC0F090014F120D2AEA2323C0C6
:10191500E02495F582E43418F583120D1A12078632
:10192500ECC0E0EDC0E0EEC0E0EFC0E0120CFE90D0
:10193500014F120D0E120782D0E0FBD0E0FAD0E085
:10194500F9D0E0B2E7F8120AE390014F120D2A90A0
:1019550018857403120B8090014F120D0E12095059
:10196500D0E0600F24A1F582E43418F583120D1A36
:1019750012078690014F120D2AD0E0C3947FFDE433
:101985009400FC12087C7B187A727931783F120931
:101995005090014F120D0E12078630000B7BD97A3D
:0919A5005B79DE783E1209502244
:100AE00002092BEC5D046005E8590470030209213A
:100AF0001208EC580460F6EC4860F2EC7004FDFE5D
:100B0000FF22C860DB2481C85009C39860025006E8
:100B10000209289850CAF582E9294B4A7005AB8230
:100B200002091775F0007C1A7880C3EF9BEE9AEDEE
:100B300099400DC3EF9BFFEE9AFEED99FDE842F060
:100B4000DC23ACF0D0E0FFD0E0FED0E0FDAB8220B3
:100B5000E7101BEB60BAEC2CFCEF33FFEE33FEED3D
:100B600033FD020903E803F830E705C0F075F00033
:100B7000EF2FFFEE33FEED33FD40B830E7C280AA21
:100B8000C0E0EFFBEEFAEDF9ECF8120950D0E0F519
:100B9000F0EFFBEEFAEDF9ECF8120CFEA3A3A3A321
:100BA000E8C0E0E9C0E0EAC0E0EBC0E0C0F0120954
:100BB00050120D1AA3A3A3A3120786D0F0D0E0FB16
:0D0BC000D0E0FAD0E0F9D0E0F8D5F0D42272
:03000000021C10CF
:0C1C1000787FE4F6D8FD758120021C5797
:100BCD00E709F608DFFA8046E709F208DFFA803E0A
:100BDD0088828C83E709F0A3DFFA8032E309F608F7
:100BED00DFFA8078E309F208DFFA807088828C835F
:100BFD00E309F0A3DFFA806489828A83E0A3F60813
:100C0D00DFFA805889828A83E0A3F208DFFA804CEC
:100C1D0080D280FA80C680D4806980F280338010C3
:100C2D0080A680EA809A80A880DA80E280CA80332C
:100C3D0089828A83ECFAE493A3C8C582C8CCC583A4
:100C4D00CCF0A3C8C582C8CCC583CCDFE9DEE78074
:100C5D000D89828A83E493A3F608DFF9ECFAA9F0F3
:100C6D00EDFB2289828A83ECFAE0A3C8C582C8CC49
:100C7D00C583CCF0A3C8C582C8CCC583CCDFEADE62
:100C8D00E880DB89828A83E493A3F208DFF980CCC4
:100C9D0088F0EF60010E4E60C388F0ED2402B404BD
:100CAD000050B9F582EB2402B4040050AF23234564
:060CBD008223900C1D7360
:100CC300BB010CE58229F582E5833AF583E02250E6
:100CD30006E92582F8E622BBFE06E92582F8E22230
:0D0CE300E58229F582E5833AF583E493224A
:0E0CF000C3E49FFFE49EFEE49DFDE49CFC2215
:100CFE00E493FC740193FD740293FE740393FF223C
:0C0D0E00E0F8A3E0F9A3E0FAA3E0FB2268
:100D1A00E493F8740193F9740293FA740393FB222F
:0C0D2A00ECF0A3EDF0A3EEF0A3EFF0223C
:100D3600A8828583F0D083D082120D4D120D4D12FC
:100D46000D4D120D4DE473E493A3C583C5F0C58321
:100D5600C8C582C8F0A3C583C5F0C583C8C582C807
:010D6600226A
:0C0D6700A42582F582E5F03583F5832297
:100D7300D083D082F8E4937012740193700DA3A30F
:100D830093F8740193F5828883E473740293686023
:060D9300EFA3A3A380DF23
:100D9900EF4E6012EF60010EEDBB010B89828A8371
:100DA900F0A3DFFCDEFA2289F05007F709DFFCA97E
:0C0DB900F022BBFEFCF309DFFCA9F022D5
:101C1C00021DFBE493A3F8E493A34003F68001F2C6
:101C2C0008DFF48029E493A3F85407240CC8C333C9
:101C3C00C4540F4420C8834004F456800146F6DF98
:101C4C00E4800B0102040810204080901E3DE47ECD
:101C5C00019360BCA3FF543F30E509541FFEE4938D
:101C6C00A360010ECF54C025E060A840B8E493A354
:101C7C00FAE493A3F8E493A3C8C582C8CAC583CA7F
:101C8C00F0A3C8C582C8CAC583CADFE9DEE780BE37
:011E6500007C
:00000001FF
