:030C5600012D006D
:100C1800120C4C120C51120C2B120B66D2AF12098B
:030C28003580FB19
:0A0C3800D2A7C2A6120BF4C2A72235
:0A0C4200D2A7D2A6120BF4C2A7221B
:100B6600C2A5C2A67F01120C387F38120C387F0C42
:100B7600120C387F06120C387F80120C387F6612F2
:100B86000C427F72120C427F65120C427F3A120CA5
:100B9600427FC0120C387F70120C427F68120C42E2
:0A0BA6007F73120C427F3A020C42EA
:050C4C00D288D2A822AD
:050C5100D28AD2AA22A4
:0D0C2B00438901E4F58CF58AD28CD2A92210
:03000300020B08E5
:100B0800C0E0C0F0C083C082C0D075D000C000C0B3
:100B180001C002C003C004C005C006C007AF8CEF07
:100B2800FEAD8A7C00E42DFFEC3EAB07FAE4F9F851
:100B38007F407E427D0F120BB08E328F33758C0052
:100B4800758A00D007D006D005D004D003D002D0D3
:0E0B580001D000D0D0D082D083D0F0D0E032D7
:03001300020AA03E
:100AA000C0E0C0F0C083C082C0D075D000C000C01C
:100AB00001C002C003C004C005C006C007AF8CEF70
:100AC000FEAD8A7C00E42DFFEC3EFEE4FD7B407A27
:100AD00042790FF8120BB08E348F35AC32AD331231
:100AE00008007C017D681208008E388F39D007D04D
:100AF00006D005D004D003D002D001D000D0D0D091
:080B000082D083D0F0D0E03276
:10093500AE32AF337C037DE81208128F3AAE32AF88
:10094500337C037DE81208127E007F64CFCDCFCEC5
:10095500CCCE1208128F3BAE32AF337C007D6412D1
:1009650008127E007F0ACFCDCFCECCCE1208128FD3
:100975003CAE32AF337C007D0A1208128D3DAE3697
:10098500AF377C037DE81208128F3EAE36AF377C59
:10099500037DE81208127E007F64CFCDCFCECCCE8A
:1009A5001208128F3FAE36AF377C007D64120812F5
:1009B5007E007F0ACFCDCFCECCCE1208128F40AEAF
:1009C50036AF377C007D0A1208128D417F85120CE7
:1009D50038E4F508743A2508F8E62430FF120C428D
:1009E500120BF60508E508D3940340E87FC5120C01
:1009F50038750904743A2509F8E62430FF120C42CB
:0E0A0500120BF60509E509D3940740E8C2B7C5
:010A130022C0
:060BF4008F807F057E00EA
:100BFA00D3EF9400EE940040147D6E7C00ED1D70DE
:0D0C0A00011CED4C70F7EF1F70E61E80E33B
:010C170022BA
:03000000020A14DD
:0C0A1400787FE4F6D8FD758141020A5B92
:10080000EF8DF0A4A8F0CF8CF0A428CE8DF0A42E0C
:02081000FE22C6
:10081200BC000BBE0029EF8DF084FFADF022E4CCCA
:10082200F875F008EF2FFFEE33FEEC33FCEE9DEC93
:10083200984005FCEE9DFE0FD5F0E9E4CEFD22EDD9
:10084200F8F5F0EE8420D21CFEADF075F008EF2F23
:10085200FFED33FD4007985006D5F0F222C398FD14
:050862000FD5F0EA22B1
:100BB000C2D5E830E70FB2D5E4C39BFBE49AFAE470
:100BC00099F9E498F8EC30E717B2D5120BE6120861
:100BD000A3E4C39BFBE49AFAE499F9E498F8800350
:100BE0001208A330D50DE4C39FFFE49EFEE49DFDF3
:040BF000E49CFC2263
:100A2000020C18E493A3F8E493A34003F68001F2C8
:100A300008DFF48029E493A3F85407240CC8C333D7
:100A4000C4540F4420C8834004F456800146F6DFA6
:100A5000E4800B0102040810204080900C56E47ED4
:100A6000019360BCA3FF543F30E509541FFEE4939B
:100A7000A360010ECF54C025E060A840B8E493A362
:100A8000FAE493A3F8E493A3C8C582C8CAC583CA8D
:100A9000F0A3C8C582C8CAC583CADFE9DEE780BE45
:010C5900009A
:1008670075F008758200EF2FFFEE33FECD33CDCC48
:1008770033CCC58233C5829BED9AEC99E5829840CB
:100887000CF582EE9BFEED9AFDEC99FC0FD5F0D6A8
:10089700E4CEFBE4CDFAE4CCF9A88222B800C1B9D2
:1008A7000059BA002DEC8BF084CFCECDFCE5F0CB10
:1008B700F97818EF2FFFEE33FEED33FDEC33FCEB49
:1008C70033FB10D703994004EB99FB0FD8E5E4F904
:1008D700FA227818EF2FFFEE33FEED33FDEC33FCF1
:1008E700C933C910D7059BE99A4007EC9BFCE99AE5
:1008F700F90FD8E0E4C9FAE4CCFB2275F010EF2F2A
:10090700FFEE33FEED33FDCC33CCC833C810D70729
:100917009BEC9AE899400AED9BFDEC9AFCE899F864
:0E0927000FD5F0DAE4CDFBE4CCFAE4C8F922F7
:00000001FF
