:1000060000010002000400080010002000400080EB
:1000160001000200040008001000200040008000DB
:10002600000000000000000000000000001800189A
:1000360000240024004200420042004200420042E6
:10004600004200420042004200420042004200429A
:100056000024002400180018000000000000000022
:10006600000000000000000000000000001800086A
:100076000024000E0042000800420008004200086A
:100086000042000800420008004200080042000842
:10009600002400080018003E0000000000000000D8
:1000A6000000000000000000000000000018003CF6
:1000B600002400420042004200420042004200206A
:1000C60000420020004200100042000800420004E6
:1000D600002400420018007E00000000000000001E
:1000E6000000000000000000000000000018003CB6
:1000F6000024004200420042004200200042001854
:1001060000420020004200400042004000420042FF
:10011600002400220018001C00000000000000005F
:100126000000000000000000000000000018002091
:10013600002400300042002800420024004200242F
:1001460000420022004200220042007E00420020BF
:1001560000240020001800780000000000000000C5
:100166000000000000000000000000000018007EF3
:100176000024000200420002004200020042001A6F
:100186000042002600420040004200400042004279
:10019600002400220018001C0000000000000000DF
:1001A60000000000000000000000000000180038F9
:1001B6000024002400420002004200020042001A0D
:1001C6000042002600420042004200420042004235
:1001D60000240024001800180000000000000000A1
:1001E6000000000000000000000000000018007E73
:1001F60000240022004200220042001000420010AB
:1002060000420008004200080042000800420008C0
:10021600002400080018000800000000000000008C
:100226000000000000000000000000000018003C74
:1002360000240042004200420042004200420024E4
:1002460000420018004200240042004200420042E0
:10025600002400420018003C0000000000000000DE
:100266000000000000000000000000000018001858
:1002760000240024004200420042004200420042A4
:100286000042006400420058004200400042004024
:10029600002400240018001C0000000000000000DC
:1002A6000000000000000000003C00F00066009C1A
:1002B6000043008200000000000000000000000073
:1002C6000000000000000000003000180060000878
:1002D60000C0000700000000000000000000000051
:1002E6000000000000000000000000000000000008
:1002F60000000000000000010020000900100011AD
:100306000010001100100011001000110010001163
:1003160000100010001000100020000800C00007A8
:1003260000000000006000000050000000C800400F
:10033600004E0021004A0012004A000C004A000C40
:10034600004A0012004E002100C800400050000084
:100356000060000000000000000000000000000037
:10036600000000000000000000840002008C000273
:100376000094000200A4000200C4000200840002EF
:100386000084000200C4000200A4000200940002DF
:10039600008C000200840002000000000000000043
:1003A600000000000000000000410010006100187D
:1003B60000510014004900120045001100C300104E
:1003C60000C300100045001100490012005100143E
:1003D600006100180041001000000000000000004D
:1003E60000000000000000000008008200180086DF
:1003F6000028008A00480092008800A2000800C376
:10040600000800C3008800A2004800920028008A65
:1004160000180086000800820000000000000000AE
:1004260000000000007F001C004200220002004184
:1004360000120041001E0041001200410002005D52
:1004460000420022007F003C000000400000000047
:100456000000000000000000000000000000000096
:100466000080000000C0000100A00002009000040F
:100476000080000000800000008000000080000076
:1004860000000000009100090051000A0051000A16
:100496000051000A0051000A004A000A008400794F
:1004A6000080000000800000008000000080000046
:1004B6000090000400A0000200C0000100800000BF
:1004C600009100090051000A0051000A0051000A7B
:1004D6000051000A0051000A004A000A008400790F
:1004E6000000000000000000003F007E0042008483
:1004F600008200840082008400420084003E007C6A
:1005060000220004004200040042000400420004ED
:1005160000C7000F000000000000000000000000FF
:100526000000000000E7000000420000004200005A
:10053600004200080042000400420002004200019E
:1005460000C20000007C000000200077001000912F
:1005560000080096000400940002007700000000E6
:020AF7008F0965
:100AF900E4F50A75F040E509A42428F582E5F03407
:100B090000F58375F004E50A1207E7740193F4FF11
:100B190075F040E509A42426F582E5F03400F58353
:100B290075F004E50A1207E7740193F4FDE50A2557
:100B3900E02406F582E43400F583E493FBE50A2515
:100B4900E02407F582E43400F583E493F530120AD2
:0A0B590089050AE50AC394104099CB
:010B6300226F
:100A8900E4FEEFC4131313540124FF92B4EF25E0DD
:100A9900FFC2B6D2B60EBE08E9E4FEEDC4131313C5
:100AA900540124FF92B4ED25E0FDC2B6D2B60EBEC4
:100AB90008E9E4FEEBC4131313540124FF92B4EBC9
:100AC90025E0FBC2B6D2B60EBE08E9E4FEE530C4A5
:100AD900131313540124FF92B4E53025E0F530C215
:0D0AE900B6D2B60EBE08E6C2B5D2B5C2B593
:010AF60022DD
:040BA4007F017E004F
:100BA800EF1FAA0670011E4A600BE4FDEDC3940D09
:050BB80050EE0D80F776
:010BBD002215
:090BE400D288D2A8D2AFD2B2220D
:03000300020819D7
:10081900C0E0C083C082C0D075D000C000C002C093
:0708290004C005C006C00772
:10083000753D007F467E00120BA830B2030208FB14
:100840009003E820B218D3E5829400E58394004039
:100850000D120BA4E582158270E9158380E520B2A4
:10086000030208FB9001F430B218D3E5829400E54E
:10087000839400400D120BA4E582158270E9158364
:1008800080E5E4FC75080090003C20B218D3E582B6
:100890009400E5839400400D120BA4E5821582704C
:1008A000E9158380E59001F430B223D3E58294000A
:1008B000E58394004018120BA4053DE58215827073
:1008C000021583E53DD3941E40DED2A8802D743EF0
:1008D0002CF8C000E6C313D000F6E53DC3940840F1
:1008E00008743E2CF8E64480F6753D000508E508DE
:0B08F000C3940840920CEC6404708973
:1008FB00D007D006D005D004D002D000D0D0D08203
:05090B00D083D0E032B2
:100B6400120BE4AF40EF24F8602424F0601024BAA0
:100B74006014245270207580011209DD80E57580AF
:100B84000312091080DD758007120BBE80D57580B5
:100B94000F120BCB80CDE4F5807F0A120AF780C3D5
:1009DD00AF40BF460122EF1207F30A63070A37083B
:1009ED000A67090A2B0C0A730D0A6B150A27160ADA
:1009FD002F180A6F190A3B1C0A5B400A43420A5F13
:100A0D00430A57440A4F450A53470A4B4A0A47526D
:100A1D000A3F5A0A335E00000A7BE4FF804A7F01D9
:100A2D0080467F0280427F03803E7F04803A7F05AF
:100A3D0080367F0680327F07802E7F08802A7F09CF
:100A4D0080267F0B80227F0C801E7F0D801A7F0EEB
:100A5D0080167F0F80127F10800E7F11800A7F120B
:100A6D0080067F1380027F14120AF70209DDE4F578
:0C0A7D0030FB7DFF7FFF120A890209DDBB
:0D0BBE00AF40BF4601227F08120AF780F306
:0D0BCB00AF40BF4601227F09120AF780F3F8
:100566000000000000000000000000000000000085
:100576000000000000000000000000000000000075
:1005860010042002F80F88088808F80F88088808E1
:10059600F80F80008000FE3F800080000000000011
:1005A6000002080208020802F81F080008000800F6
:1005B600F807080408040804040402040000000004
:1005C6000800880F8808BE08880888089C08AC08B8
:1005D6008A0888088808482848282830000000002B
:1005E600F83F08020801C81F4810C81F4810C81F56
:1005F6000802481248222422040282030000000056
:100606000000C01F5E124812C81F48125E12C81FA3
:1006160008020802D81F06020002E03F00000000A0
:100626000000FC07100410021002100F10085004FE
:100636005004880208018402620C18300000000091
:1006460080000001FC3F040084000411041214120F
:1006560024104408440804040402F23F0000000089
:100666000000F83F082108210821F83F0821082149
:10067600F83F082108210421042102380000000067
:100686000000000000000000000000000000000064
:100696000000000000000000000000000000000054
:1006A600FF0566FF0586FF05A6FF05C6FF05E6FFF3
:0E06B6000606FF0626FF0646FF0666FF0686BE
:10091000780F7C007D007BFF7A0679A67E007F1E23
:10092000120794E540B4460122750D00750E14E4DB
:10093000F509F50AE50A250CFFE509350BFEEF255B
:10094000E0FDEE33FCAB0FE5112DF9E5103CFA901C
:1009500000011207BAF4FFC007AA10A9118D828CFA
:10096000831207BAF4FDE50A25E0FFE50933FE74BA
:10097000062FF58274003EF583E493FB74072FF590
:100980008274003EF583E493F530D007120A89059E
:100990000AE50A70020509C39410E5096480948091
:1009A0004092E4F530FB7DFF7FFF120A89E50E15CA
:1009B0000E7002150DD3E50E9400E50D6480948051
:1009C000400302092F050CE50C7002050B648245FB
:0D09D0000B6003020923F50BF50C0209234F
:03000000020BD818
:0C0BD800787FE4F6D8FD758143020B64C1
:1006C400E709F608DFFA8046E709F208DFFA803E18
:1006D40088828C83E709F0A3DFFA8032E309F60805
:1006E400DFFA8078E309F208DFFA807088828C836D
:1006F400E309F0A3DFFA806489828A83E0A3F60821
:10070400DFFA805889828A83E0A3F208DFFA804CFA
:1007140080D280FA80C680D4806980F280338010D1
:1007240080A680EA809A80A880DA80E280CA80333A
:1007340089828A83ECFAE493A3C8C582C8CCC583B2
:10074400CCF0A3C8C582C8CCC583CCDFE9DEE78082
:100754000D89828A83E493A3F608DFF9ECFAA9F001
:10076400EDFB2289828A83ECFAE0A3C8C582C8CC57
:10077400C583CCF0A3C8C582C8CCC583CCDFEADE70
:10078400E880DB89828A83E493A3F208DFF980CCD2
:1007940088F0EF60010E4E60C388F0ED2402B404CB
:1007A4000050B9F582EB2402B4040050AF23234572
:0607B4008223900714737C
:1007BA00BB010CE58229F582E5833AF583E02250F4
:1007CA0006E92582F8E622BBFE06E92582F8E2223E
:0D07DA00E58229F582E5833AF583E4932258
:0C07E700A42582F582E5F03583F583221D
:1007F300D083D082F8E4937012740193700DA3A395
:1008030093F8740193F5828883E4737402936860A8
:06081300EFA3A3A380DFA8
:00000001FF
