:03000000020030CB
:030003000200DF19
:03000B000200E40C
:030013000200CF19
:1000300011EDD20075300075320075310090010F5E
:100040007A053000FDC2001170114D80F5DA207A7A
:10005000050532AB32BB64177532000530AB30BBDF
:100060003C0D7530000531AB31BB3C0375310022CE
:1000700085323311C893F58075A010310675A00044
:10008000E5F093F58075A020310675A0008530332A
:1000900011C893F58075A004310675A000E5F093B2
:1000A000F58075A008310675A00085313311C8931D
:1000B000F58075A001310675A000E5F093F5807517
:1000C000A002310675A00022E53375F00A8422C033
:1000D000E07530007503007532003106D0E032B2B1
:1000E0008C31063285508A85518CD2003275890157
:1000F00090B1E085825085835185508A85518C75F9
:10010000A887758815227E507D3CDDFEDEFA223FF1
:0F011000065B4F666D7D077F6F777C395E797177
:00000001FF
